******************************************************************************
                  TI ARM Linker PC v20.2.1                     
******************************************************************************
>> Linked Wed Dec  9 16:57:26 2020

OUTPUT FILE NAME:   <pdmstream_CC1352R1_LAUNCHXL_tirtos_ccs.out>
ENTRY POINT SYMBOL: "ResetISR"  address: 000041a5


MEMORY CONFIGURATION

         name            origin    length      used     unused   attr    fill
----------------------  --------  ---------  --------  --------  ----  --------
  FLASH                 00000000   00058000  00006a14  000515ec  R  X
  GPRAM                 11000000   00002000  00000000  00002000  RW X
  SRAM                  20000000   00014000  00011aec  00002514  RW X


SEGMENT ALLOCATION MAP

run origin  load origin   length   init length attrs members
----------  ----------- ---------- ----------- ----- -------
00000000    00000000    000069c0   000069c0    r-x
  00000000    00000000    0000003c   0000003c    r-- .resetVecs
  0000003c    0000003c    00005e40   00005e40    r-x .text
  00005e7c    00005e7c    00000860   00000860    r-- .const
  000066e0    000066e0    000002e0   000002e0    r-- .cinit
00057fa8    00057fa8    00000058   00000058    r--
  00057fa8    00057fa8    00000058   00000058    r-- .ccfg
20000100    20000100    00001578   00000000    rw-
  20000100    20000100    00000004   00000000    rw- .data:xdcRomConstPtr
  20000104    20000104    00000004   00000000    rw- .data:xdcRomExternFuncPtr
  20000108    20000108    00000004   00000000    rw- .data:xdcRomStatePtr
  20000110    20000110    00000f28   00000000    rw- .bss
  20001038    20001038    00000640   00000000    rw- .data
20001830    20001830    00000010   00000000    rw-
  20001830    20001830    00000010   00000000    rw- .TI.bound:dmaSpi0RxControlTableEntry
20001840    20001840    00000010   00000000    rw-
  20001840    20001840    00000010   00000000    rw- .TI.bound:dmaSpi0TxControlTableEntry
20001870    20001870    00000010   00000000    rw-
  20001870    20001870    00000010   00000000    rw- .TI.bound:dmaADCPriControlTableEntry
20001900    20001900    00000010   00000000    rw-
  20001900    20001900    00000010   00000000    rw- .TI.bound:dmaSpi1RxControlTableEntry
20001910    20001910    00000010   00000000    rw-
  20001910    20001910    00000010   00000000    rw- .TI.bound:dmaSpi1TxControlTableEntry
20001a30    20001a30    00000010   00000000    rw-
  20001a30    20001a30    00000010   00000000    rw- .TI.bound:dmaSpi0RxAltControlTableEntry
20001a40    20001a40    00000010   00000000    rw-
  20001a40    20001a40    00000010   00000000    rw- .TI.bound:dmaSpi0TxAltControlTableEntry
20001a70    20001a70    00000010   00000000    rw-
  20001a70    20001a70    00000010   00000000    rw- .TI.bound:dmaADCAltControlTableEntry
20001b00    20001b00    00000010   00000000    rw-
  20001b00    20001b00    00000010   00000000    rw- .TI.bound:dmaSpi1RxAltControlTableEntry
20001b10    20001b10    00000010   00000000    rw-
  20001b10    20001b10    00000010   00000000    rw- .TI.bound:dmaSpi1TxAltControlTableEntry
20001b20    20001b20    00010000   00000000    r--
  20001b20    20001b20    00010000   00000000    r-- .priheap
20013c00    20013c00    00000400   00000000    rw-
  20013c00    20013c00    00000400   00000000    rw- .stack


SECTION ALLOCATION MAP

 output                                  attributes/
section   page    origin      length       input sections
--------  ----  ----------  ----------   ----------------
.binit     0    00000000    00000000     

.cinit     0    000066e0    000002e0     
                  000066e0    000001e7     (.cinit..data.load) [load image, compression = lzss]
                  000068c7    00000001     --HOLE-- [fill = 0]
                  000068c8    0000000c     (__TI_handler_table)
                  000068d4    00000004     --HOLE-- [fill = 0]
                  000068d8    00000008     (.cinit..TI.bound:dmaADCAltControlTableEntry.load) [load image, compression = zero_init]
                  000068e0    00000008     (.cinit..TI.bound:dmaADCPriControlTableEntry.load) [load image, compression = zero_init]
                  000068e8    00000008     (.cinit..TI.bound:dmaSpi0RxAltControlTableEntry.load) [load image, compression = zero_init]
                  000068f0    00000008     (.cinit..TI.bound:dmaSpi0RxControlTableEntry.load) [load image, compression = zero_init]
                  000068f8    00000008     (.cinit..TI.bound:dmaSpi0TxAltControlTableEntry.load) [load image, compression = zero_init]
                  00006900    00000008     (.cinit..TI.bound:dmaSpi0TxControlTableEntry.load) [load image, compression = zero_init]
                  00006908    00000008     (.cinit..TI.bound:dmaSpi1RxAltControlTableEntry.load) [load image, compression = zero_init]
                  00006910    00000008     (.cinit..TI.bound:dmaSpi1RxControlTableEntry.load) [load image, compression = zero_init]
                  00006918    00000008     (.cinit..TI.bound:dmaSpi1TxAltControlTableEntry.load) [load image, compression = zero_init]
                  00006920    00000008     (.cinit..TI.bound:dmaSpi1TxControlTableEntry.load) [load image, compression = zero_init]
                  00006928    00000008     (.cinit..bss.load) [load image, compression = zero_init]
                  00006930    00000008     (.cinit..data:xdcRomConstPtr.load) [load image, compression = lzss]
                  00006938    00000008     (.cinit..data:xdcRomExternFuncPtr.load) [load image, compression = lzss]
                  00006940    00000008     (.cinit..data:xdcRomStatePtr.load) [load image, compression = lzss]
                  00006948    00000078     (__TI_cinit_table)

.init_array 
*          0    00000000    00000000     UNINITIALIZED

.ccfg      0    00057fa8    00000058     
                  00057fa8    00000058     ccfg.obj (.ccfg:retain)

.bss       0    20000110    00000f28     UNINITIALIZED
                  20000110    00000260     (.common:uartCC26XXObjects)
                  20000370    00000200     release_pem4f.oem4f (.bss:taskStackSection)
                  20000570    00000100     (.common:pdmBuf1)
                  20000670    00000100     (.common:pdmBuf2)
                  20000770    00000100     (.common:pdmBuf3)
                  20000870    00000100     (.common:pdmBuf4)
                  20000970    00000100     (.common:pdmBuf5)
                  20000a70    00000100     (.common:pdmBuf6)
                  20000b70    000000d8     (.common:ti_sysbios_family_arm_m3_Hwi_dispatchTable)
                  20000c48    000000ac     (.common:i2sCC26XXObjects)
                  20000cf4    0000007c     (.common:pinHandleTable)
                  20000d70    00000040     (.common:pcmBufL1)
                  20000db0    00000040     (.common:uartCC26XXRingBuffer)
                  20000df0    0000003c     (.common:pdmCC26XXObjects)
                  20000e2c    00000034     drivers_cc13x2.aem4f : PINCC26XX.oem4f (.bss:pinSwi)
                  20000e60    00000020                          : GPIOCC26XX.oem4f (.bss:gpioCallbackInfo)
                  20000e80    00000020                          : PINCC26XX.oem4f (.bss:pinGpioConfigTable)
                  20000ea0    00000020     (.common:myDecimationFilter)
                  20000ec0    00000020     (.common:pdmTransaction1)
                  20000ee0    00000020     (.common:pdmTransaction2)
                  20000f00    00000020     (.common:pdmTransaction3)
                  20000f20    00000020     (.common:pdmTransaction4)
                  20000f40    00000020     (.common:pdmTransaction5)
                  20000f60    00000020     (.common:pdmTransaction6)
                  20000f80    0000001c                          : PINCC26XX.oem4f (.bss:pinHwi)
                  20000f9c    0000001c                          : PINCC26XX.oem4f (.bss:pinSemaphore)
                  20000fb8    00000018     (.common:pdmParams)
                  20000fd0    00000014     (.common:adpcmBuf)
                  20000fe4    00000014     (.common:sPDMEvents)
                  20000ff8    0000000c                          : GPIOCC26XX.oem4f (.bss:gpioPinState)
                  20001004    00000008                          : GPIOCC26XX.oem4f (.bss)
                  2000100c    00000008     (.common:pdmList)
                  20001014    00000006                          : Codec1.oem4f (.bss)
                  2000101a    00000001     (.common:driverlib_release_0_57398)
                  2000101b    00000001     --HOLE--
                  2000101c    00000004                          : PINCC26XX.oem4f (.bss)
                  20001020    00000004     pdmstream.obj (.bss)
                  20001024    00000004     (.common:PowerCC26XX_swiKey)
                  20001028    00000004     (.common:PowerCC26XX_taskKey)
                  2000102c    00000004     (.common:gainCoefficient)
                  20001030    00000004     (.common:pcmBufferLength)
                  20001034    00000004     (.common:pdmEvents)

.data      0    20001038    00000640     UNINITIALIZED
                  20001038    00000134     drivers_cc13x2.aem4f : PowerCC26X2.oem4f (.data:PowerCC26X2_module)
                  2000116c    0000010c     release_pem4f.oem4f (.data:ROM_stateStruct)
                  20001278    00000088     rom_sysbios.aem4f : rom_sysbios.obj (.data:$O1$$)
                  20001300    00000054     release_pem4f.oem4f (.data:ti_sysbios_gates_GateMutex_Object__table__V)
                  20001354    0000004c     release_pem4f.oem4f (.data:ti_sysbios_knl_Task_Object__table__V)
                  200013a0    00000048     release_pem4f.oem4f (.data:ti_sysbios_family_arm_cc26xx_Timer_Object__table__V)
                  200013e8    00000040     pdmstream.obj (.data:decimationFilterState)
                  20001428    00000030     CC1352R1_LAUNCHXL.obj (.data:gpioPinConfigs)
                  20001458    00000030     release_pem4f.oem4f (.data:ti_sysbios_knl_Swi_Module_State_0_readyQ__A)
                  20001488    00000030     release_pem4f.oem4f (.data:ti_sysbios_knl_Swi_Object__table__V)
                  200014b8    00000030     release_pem4f.oem4f (.data:ti_sysbios_knl_Task_Module_State_0_readyQ__A)
                  200014e8    00000024     driverlib.lib : osc.obj (.data:$O1$$)
                  2000150c    00000020     PDMFilterTI.obj (.data:PDMTiFilter_decimation64)
                  2000152c    00000020     release_pem4f.oem4f (.data:ti_sysbios_knl_Clock_Object__table__V)
                  2000154c    00000020     release_pem4f.oem4f (.data:xdc_runtime_Error_IgnoreBlock)
                  2000156c    00000018     pdmstream.obj (.data:pdmBufList)
                  20001584    00000018     pdmstream.obj (.data:pdmTransactionList)
                  2000159c    00000018     release_pem4f.oem4f (.data:ti_sysbios_family_arm_m3_Hwi_Object__table__V)
                  200015b4    00000018     release_pem4f.oem4f (.data:ti_sysbios_heaps_HeapMem_Object__table__V)
                  200015cc    00000010     CC1352R1_LAUNCHXL.obj (.data:gpioCallbackFunctions)
                  200015dc    00000008     rtsv7M4_T_le_v4SPD16_eabi.lib : _lock.c.obj (.data:$O1$$)
                  200015e4    00000008     drivers_cc13x2.aem4f : PINCC26XX.oem4f (.data)
                  200015ec    00000008     release_pem4f.oem4f (.data:ti_sysbios_family_arm_m3_Hwi_Module__root__V)
                  200015f4    00000008     release_pem4f.oem4f (.data:ti_sysbios_gates_GateHwi_Module__root__V)
                  200015fc    00000008     release_pem4f.oem4f (.data:ti_sysbios_gates_GateMutex_Module__root__V)
                  20001604    00000008     release_pem4f.oem4f (.data:ti_sysbios_hal_Hwi_Module__root__V)
                  2000160c    00000008     release_pem4f.oem4f (.data:ti_sysbios_heaps_HeapMem_Module__root__V)
                  20001614    00000008     release_pem4f.oem4f (.data:ti_sysbios_knl_Clock_Module__root__V)
                  2000161c    00000008     release_pem4f.oem4f (.data:ti_sysbios_knl_Event_Module__root__V)
                  20001624    00000008     release_pem4f.oem4f (.data:ti_sysbios_knl_Mailbox_Module__root__V)
                  2000162c    00000008     release_pem4f.oem4f (.data:ti_sysbios_knl_Queue_Module__root__V)
                  20001634    00000008     release_pem4f.oem4f (.data:ti_sysbios_knl_Semaphore_Module__root__V)
                  2000163c    00000008     release_pem4f.oem4f (.data:ti_sysbios_knl_Swi_Module__root__V)
                  20001644    00000008     release_pem4f.oem4f (.data:ti_sysbios_knl_Task_Module__root__V)
                  2000164c    00000008     release_pem4f.oem4f (.data:xdc_runtime_System_Module_State_0_atexitHandlers__A)
                  20001654    00000006     pdmstream.obj (.data)
                  2000165a    00000002     release_pem4f.oem4f (.data:ti_sysbios_family_arm_m3_Hwi_Module_State_0_excActive__A)
                  2000165c    00000005     drivers_cc13x2.aem4f : GPIOCC26XX.oem4f (.data)
                  20001661    00000001     PDMCC26XX.obj (.data)
                  20001662    00000001     drivers_cc13x2.aem4f : I2SCC26XX.oem4f (.data)
                  20001663    00000001                          : UART.oem4f (.data)
                  20001664    00000004                          : GPIOCC26XX.oem4f (.data:gpioPinTable)
                  20001668    00000004     rtsv7M4_T_le_v4SPD16_eabi.lib : stkdepth_vars.c.obj (.data)
                  2000166c    00000004     release_pem4f.oem4f (.data:ti_sysbios_family_arm_m3_Hwi_Module_State_0_excContext__A)
                  20001670    00000004     release_pem4f.oem4f (.data:ti_sysbios_family_arm_m3_Hwi_Module_State_0_excStack__A)
                  20001674    00000004     release_pem4f.oem4f (.data:ti_sysbios_knl_Task_Module_State_0_idleTask__A)

.stack     0    20013c00    00000400     UNINITIALIZED
                  20013c00    00000400     --HOLE--

.priheap   0    20001b20    00010000     UNINITIALIZED
                  20001b20    00010000     --HOLE--

.data:xdcRomConstPtr 
*          0    20000100    00000004     UNINITIALIZED
                  20000100    00000004     release_pem4f.oem4f (.data:xdcRomConstPtr)

.data:xdcRomExternFuncPtr 
*          0    20000104    00000004     UNINITIALIZED
                  20000104    00000004     release_pem4f.oem4f (.data:xdcRomExternFuncPtr)

.data:xdcRomStatePtr 
*          0    20000108    00000004     UNINITIALIZED
                  20000108    00000004     release_pem4f.oem4f (.data:xdcRomStatePtr)

.bootVecs 
*          0    00000000    00000008     DSECT
                  00000000    00000008     boot.aem4f : boot.oem4f (.bootVecs)

.resetVecs 
*          0    00000000    0000003c     
                  00000000    0000003c     release_pem4f.oem4f (.resetVecs)

.vecs      0    20000000    000000d8     NOLOAD SECTION
                  20000000    000000d8     release_pem4f.oem4f (.vecs)

xdc.meta   0    00000000    00000104     COPY SECTION
                  00000000    00000104     release_pem4f.oem4f (xdc.meta)

xdc.noload 
*          0    00000000    00000000     COPY SECTION

__llvm_prf_cnts 
*          0    20000000    00000000     UNINITIALIZED

.TI.bound:dmaSpi0RxControlTableEntry 
*          0    20001830    00000010     UNINITIALIZED
                  20001830    00000010     drivers_cc13x2.aem4f : SPICC26X2DMA.oem4f (.TI.bound:dmaSpi0RxControlTableEntry)

.TI.bound:dmaSpi0TxControlTableEntry 
*          0    20001840    00000010     UNINITIALIZED
                  20001840    00000010     drivers_cc13x2.aem4f : SPICC26X2DMA.oem4f (.TI.bound:dmaSpi0TxControlTableEntry)

.TI.bound:dmaADCPriControlTableEntry 
*          0    20001870    00000010     UNINITIALIZED
                  20001870    00000010     drivers_cc13x2.aem4f : ADCBufCC26X2.oem4f (.TI.bound:dmaADCPriControlTableEntry)

.TI.bound:dmaSpi1RxControlTableEntry 
*          0    20001900    00000010     UNINITIALIZED
                  20001900    00000010     drivers_cc13x2.aem4f : SPICC26X2DMA.oem4f (.TI.bound:dmaSpi1RxControlTableEntry)

.TI.bound:dmaSpi1TxControlTableEntry 
*          0    20001910    00000010     UNINITIALIZED
                  20001910    00000010     drivers_cc13x2.aem4f : SPICC26X2DMA.oem4f (.TI.bound:dmaSpi1TxControlTableEntry)

.TI.bound:dmaSpi0RxAltControlTableEntry 
*          0    20001a30    00000010     UNINITIALIZED
                  20001a30    00000010     drivers_cc13x2.aem4f : SPICC26X2DMA.oem4f (.TI.bound:dmaSpi0RxAltControlTableEntry)

.TI.bound:dmaSpi0TxAltControlTableEntry 
*          0    20001a40    00000010     UNINITIALIZED
                  20001a40    00000010     drivers_cc13x2.aem4f : SPICC26X2DMA.oem4f (.TI.bound:dmaSpi0TxAltControlTableEntry)

.TI.bound:dmaADCAltControlTableEntry 
*          0    20001a70    00000010     UNINITIALIZED
                  20001a70    00000010     drivers_cc13x2.aem4f : ADCBufCC26X2.oem4f (.TI.bound:dmaADCAltControlTableEntry)

.TI.bound:dmaSpi1RxAltControlTableEntry 
*          0    20001b00    00000010     UNINITIALIZED
                  20001b00    00000010     drivers_cc13x2.aem4f : SPICC26X2DMA.oem4f (.TI.bound:dmaSpi1RxAltControlTableEntry)

.TI.bound:dmaSpi1TxAltControlTableEntry 
*          0    20001b10    00000010     UNINITIALIZED
                  20001b10    00000010     drivers_cc13x2.aem4f : SPICC26X2DMA.oem4f (.TI.bound:dmaSpi1TxAltControlTableEntry)

.text      0    0000003c    00005e40     
                  0000003c    00000400     pdm2pcm_OneLine_M4_ccs.obj (.text:pdm2pcm_lut)
                  0000043c    00000318     pdm2pcm_OneLine_M4_ccs.obj (.text:pdm2pcm_2nd_stage)
                  00000754    000002e8     pdmstream.obj (.text:mainThread)
                  00000a3c    000001c8     PDMCC26XX.obj (.text:PDM_open)
                  00000c04    000001c4     drivers_cc13x2.aem4f : PINCC26XX.oem4f (.text:PIN_init)
                  00000dc8    000001c0                          : I2SCC26XX.oem4f (.text:initObject)
                  00000f88    000001b6     rtsv7M4_T_le_v4SPD16_eabi.lib : fd_add_t2.asm.obj (.text)
                  0000113e    00000002                                   : _lock.c.obj (.text:_nop)
                  00001140    00000198     drivers_cc13x2.aem4f : PowerCC26X2.oem4f (.text:Power_sleep)
                  000012d8    00000194                          : PowerCC26X2.oem4f (.text:Power_init)
                  0000146c    00000190                          : PowerCC26X2_calibrateRCOSC.oem4f (.text:calibrateRcoscHf1)
                  000015fc    0000018c                          : PowerCC26X2_calibrateRCOSC.oem4f (.text:runCalibrateFsm)
                  00001788    00000188     release_pem4f.oem4f (.text:xdc_runtime_System_printfExtend__I)
                  00001910    00000164     drivers_cc13x2.aem4f : UARTCC26XX.oem4f (.text:UARTCC26XX_open)
                  00001a74    00000154                          : UARTCC26XX.oem4f (.text:UARTCC26XX_hwiIntFxn)
                  00001bc8    0000013a                          : UARTCC26XX.oem4f (.text:UARTCC26XX_read)
                  00001d02    00000002                          : PowerCC26X2.oem4f (.text:emptyClockFunc)
                  00001d04    00000124     pdm2pcm_OneLine_M4_ccs.obj (.text:pdm2pcm16k)
                  00001e28    00000120     drivers_cc13x2.aem4f : PowerCC26X2.oem4f (.text:configureXOSCHF)
                  00001f48    0000011c                          : I2SCC26XX.oem4f (.text:initIO)
                  00002064    00000110                          : GPIOCC26XX.oem4f (.text:GPIO_setConfig)
                  00002174    000000fc     rtsv7M4_T_le_v4SPD16_eabi.lib : fd_mul_t2.asm.obj (.text)
                  00002270    000000f8     driverlib.lib : sys_ctrl.obj (.text:NOROM_SysCtrlStandby)
                  00002368    000000f8     drivers_cc13x2.aem4f : PINCC26XX.oem4f (.text:PINCC26XX_setIoCfg)
                  00002460    000000ec     rom_sysbios.aem4f : rom_sysbios.obj (.text:pthread_create)
                  0000254c    000000e4     drivers_cc13x2.aem4f : I2SCC26XX.oem4f (.text:I2S_hwiIntFxn)
                  00002630    000000e0                          : UARTCC26XX.oem4f (.text:UARTCC26XX_write)
                  00002710    000000ce     PDMCC26XX.obj (.text:PDM_i2sCallback)
                  000027de    00000002     rtsv7M4_T_le_v4SPD16_eabi.lib : div0.asm.obj (.text)
                  000027e0    000000c4     drivers_cc13x2.aem4f : GPIOCC26XX.oem4f (.text:GPIO_init)
                  000028a4    000000c0                          : PowerCC26X2.oem4f (.text:Power_releaseDependency)
                  00002964    000000c0                          : UARTCC26XX.oem4f (.text:UARTCC26XX_initIO)
                  00002a24    000000b8                          : PowerCC26X2.oem4f (.text:Power_setDependency)
                  00002adc    000000b8                          : UARTCC26XX.oem4f (.text:UARTCC26XX_initHw)
                  00002b94    000000b4     dpl_cc13x2.aem4f : PowerCC26X2_tirtos.oem4f (.text:PowerCC26XX_standbyPolicy)
                  00002c48    000000b0     drivers_cc13x2.aem4f : Codec1.oem4f (.text:Codec1_encodeSingle)
                  00002cf8    000000ac                          : PINCC26XX.oem4f (.text:PIN_open)
                  00002da4    000000ac     driverlib.lib : setup.obj (.text:TrimAfterColdResetWakeupFromShutDown)
                  00002e50    000000a0     auto_init.aem4f : auto_init.oem4f (.text)
                  00002ef0    000000a0     rom_sysbios.aem4f : rom_sysbios.obj (.text:ti_sysbios_knl_Task_setPri__E)
                  00002f90    000000a0     drivers_cc13x2.aem4f : I2SCC26XX.oem4f (.text:updatePointer)
                  00003030    0000009c     rtsv7M4_T_le_v4SPD16_eabi.lib : memcpy_t2.asm.obj (.text)
                  000030cc    00000098     driverlib.lib : setup.obj (.text:NOROM_SetupTrimDevice)
                  00003164    00000098     drivers_cc13x2.aem4f : UARTCC26XX.oem4f (.text:writeTxFifoFlush)
                  000031fc    00000096     PDMCC26XX.obj (.text:PDM_getPCMData)
                  00003292    00000096     rtsv7M4_T_le_v4SPD16_eabi.lib : ull_div_t2.asm.obj (.text)
                  00003328    00000092     drivers_cc13x2.aem4f : UARTCC26XX.oem4f (.text:UARTCC26XX_writeCancel)
                  000033ba    00000002     release_pem4f.oem4f (.text:ti_sysbios_BIOS_nullFunc__I)
                  000033bc    00000088     driverlib.lib : osc.obj (.text:NOROM_OSCHF_AttemptToSwitchToXosc)
                  00003444    00000088     rom_sysbios.aem4f : rom_sysbios.obj (.text:_pthread_removeThreadKeys)
                  000034cc    00000088     drivers_cc13x2.aem4f : PowerCC26X2_calibrateRCOSC.oem4f (.text:calibrateRcoscHf2)
                  00003554    00000088                          : PowerCC26X2.oem4f (.text:disableLFClockQualifiers)
                  000035dc    00000088                          : PowerCC26X2_calibrateRCOSC.oem4f (.text:updateSubSecInc)
                  00003664    00000086     rtsv7M4_T_le_v4SPD16_eabi.lib : fd_cmp_t2.asm.obj (.text:__aeabi_cdcmple)
                  000036ea    00000086                                   : fd_cmp_t2.asm.obj (.text:__aeabi_cdrcmple)
                  00003770    00000084     CC1352R1_LAUNCHXL_fxns.obj (.text:CC1352R1_LAUNCHXL_sendExtFlashByte)
                  000037f4    00000084     drivers_cc13x2.aem4f : UARTCC26XX.oem4f (.text:UARTCC26XX_close)
                  00003878    00000084     rom_sysbios.aem4f : rom_sysbios.obj (.text:ti_sysbios_family_arm_m3_Hwi_excHandlerMin__I)
                  000038fc    00000080     driverlib.lib : sys_ctrl.obj (.text:NOROM_SysCtrlSetRechargeBeforePowerDown)
                  0000397c    00000080     rom_sysbios.aem4f : rom_sysbios.obj (.text:ti_sysbios_family_arm_cc26xx_Timer_start__E)
                  000039fc    0000007c     drivers_cc13x2.aem4f : I2SCC26XX.oem4f (.text:I2S_open)
                  00003a78    0000007a     rtsv7M4_T_le_v4SPD16_eabi.lib : memset_t2.asm.obj (.text)
                  00003af2    00000002     rom_sysbios.aem4f : rom_sysbios.obj (.text:xdc_runtime_SysCallback_defaultAbort)
                  00003af4    00000078     drivers_cc13x2.aem4f : Codec1.oem4f (.text:Codec1_encodeBuff)
                  00003b6c    00000074                          : PowerCC26X2_calibrateRCOSC.oem4f (.text:PowerCC26X2_auxISR)
                  00003be0    00000070                          : PINCC26XX.oem4f (.text:PIN_add)
                  00003c50    0000006d     rom_sysbios.aem4f : rom_sysbios.obj (.text:xdc_runtime_System_formatNum__I)
                  00003cbd    00000001     --HOLE-- [fill = 0]
                  00003cbe    00000002                       : rom_sysbios.obj (.text:xdc_runtime_SysCallback_defaultExit)
                  00003cc0    00000068     drivers_cc13x2.aem4f : I2SCC26XX.oem4f (.text:I2S_close)
                  00003d28    00000068     driverlib.lib : osc.obj (.text:NOROM_OSCHF_SwitchToRcOscTurnOffXosc)
                  00003d90    00000068     rtsv7M4_T_le_v4SPD16_eabi.lib : copy_decompress_lzss.c.obj (.text:decompress:lzss:__TI_decompress_lzss)
                  00003df8    00000064     drivers_cc13x2.aem4f : UARTCC26XX.oem4f (.text:UARTCC26XX_control)
                  00003e5c    00000064     main_tirtos.obj (.text:main)
                  00003ec0    00000062     drivers_cc13x2.aem4f : UARTCC26XX.oem4f (.text:UARTCC26XX_swiIntFxn)
                  00003f22    00000002     rom_sysbios.aem4f : rom_sysbios.obj (.text:xdc_runtime_SysCallback_defaultFlush)
                  00003f24    00000060     drivers_cc13x2.aem4f : GPIOCC26XX.oem4f (.text:GPIO_write)
                  00003f84    0000005c                          : PINCC26XX.oem4f (.text:PIN_remove)
                  00003fe0    0000005c                          : UARTCC26XX.oem4f (.text:startTxFifoEmptyClk)
                  0000403c    0000005c     rom_sysbios.aem4f : rom_sysbios.obj (.text:ti_sysbios_heaps_HeapMem_initPrimary__I)
                  00004098    0000005c     release_pem4f.oem4f (.text:xdc_runtime_Startup_getState__I)
                  000040f4    00000058     PDMCC26XX.obj (.text:PDM_init)
                  0000414c    00000058     drivers_cc13x2.aem4f : PowerCC26X2_calibrateRCOSC.oem4f (.text:PowerCC26X2_initiateCalibration)
                  000041a4    00000058     boot.aem4f : boot.oem4f (.text)
                  000041fc    00000058     rom_sysbios.aem4f : rom_sysbios.obj (.text:pthread_exit)
                  00004254    00000054     driverlib.lib : chipinfo.obj (.text:NOROM_ChipInfo_GetChipType)
                  000042a8    00000054                   : prcm.obj (.text:NOROM_PRCMPowerDomainsAllOff)
                  000042fc    00000054     drivers_cc13x2.aem4f : I2SCC26XX.oem4f (.text:computeWSDivider)
                  00004350    00000054                          : I2SCC26XX.oem4f (.text:configSerialFormat)
                  000043a4    00000050                          : GPIOCC26XX.oem4f (.text:GPIO_enableInt)
                  000043f4    00000050     pdmstream.obj (.text:pdmCallbackFxn)
                  00004444    0000004c     CC1352R1_LAUNCHXL_fxns.obj (.text:CC1352R1_LAUNCHXL_wakeUpExtFlash)
                  00004490    0000004c     driverlib.lib : prcm.obj (.text:NOROM_PRCMPowerDomainsAllOn)
                  000044dc    0000004c     drivers_cc13x2.aem4f : UARTCC26XX.oem4f (.text:UARTCC26XX_readCancel)
                  00004528    0000004c     rtsv7M4_T_le_v4SPD16_eabi.lib : cpy_tbl.c.obj (.text:copy_in)
                  00004574    0000004c     drivers_cc13x2.aem4f : PowerCC26X2.oem4f (.text:switchXOSCHF)
                  000045c0    00000048                          : PINCC26XX.oem4f (.text:PIN_setOutputEnable)
                  00004608    00000048                          : PowerCC26X2_calibrateRCOSC.oem4f (.text:PowerCC26X2_RCOSC_clockFunc)
                  00004650    00000048     rtsv7M4_T_le_v4SPD16_eabi.lib : fd_toi_t2.asm.obj (.text)
                  00004698    00000048     drivers_cc13x2.aem4f : UARTCC26XX.oem4f (.text:writeFinishedDoCallback)
                  000046e0    00000046                          : RingBuf.oem4f (.text:RingBuf_put)
                  00004726    00000046                          : I2SCC26XX.oem4f (.text:computeMemoryStep)
                  0000476c    00000046                          : I2SCC26XX.oem4f (.text:getBitRate)
                  000047b2    00000002     rom_sysbios.aem4f : rom_sysbios.obj (.text:xdc_runtime_SysCallback_defaultPutch)
                  000047b4    00000044     drivers_cc13x2.aem4f : I2SCC26XX.oem4f (.text:I2S_startRead)
                  000047f8    00000044                          : I2SCC26XX.oem4f (.text:I2S_stopRead)
                  0000483c    00000044     driverlib.lib : chipinfo.obj (.text:NOROM_ChipInfo_GetHwRevision)
                  00004880    00000044     drivers_cc13x2.aem4f : PINCC26XX.oem4f (.text:PIN_swi)
                  000048c4    00000044                          : UART.oem4f (.text:UART_init)
                  00004908    00000044     rtsv7M4_T_le_v4SPD16_eabi.lib : fd_tou_t2.asm.obj (.text)
                  0000494c    00000042     PDMCC26XX.obj (.text:PDM_setQueueHead)
                  0000498e    00000002     --HOLE-- [fill = 0]
                  00004990    00000040     CC1352R1_LAUNCHXL_fxns.obj (.text:CC1352R1_LAUNCHXL_shutDownExtFlash)
                  000049d0    00000040     dpl_cc13x2.aem4f : ClockP_tirtos.oem4f (.text:ClockP_construct)
                  00004a10    00000040     driverlib.lib : osc.obj (.text:NOROM_OSC_HPOSCRelativeFrequencyOffsetGet)
                  00004a50    00000040     drivers_cc13x2.aem4f : RingBuf.oem4f (.text:RingBuf_get)
                  00004a90    00000040                          : UART.oem4f (.text:UART_open)
                  00004ad0    00000040                          : I2SCC26XX.oem4f (.text:configClocks)
                  00004b10    00000040     rtsv7M4_T_le_v4SPD16_eabi.lib : u_divt2.asm.obj (.text)
                  00004b50    00000040     rom_sysbios.aem4f : rom_sysbios.obj (.text:ti_sysbios_family_arm_cc26xx_Timer_setThreshold__I)
                  00004b90    0000003e     dpl_cc13x2.aem4f : HwiP_tirtos.oem4f (.text:HwiP_construct)
                  00004bce    00000002     --HOLE-- [fill = 0]
                  00004bd0    0000003c     drivers_cc13x2.aem4f : I2SCC26XX.oem4f (.text:I2S_stopClocks)
                  00004c0c    0000003c                          : I2SCC26XX.oem4f (.text:I2S_stopWrite)
                  00004c48    0000003c                          : PINCC26XX.oem4f (.text:PIN_setInterrupt)
                  00004c84    0000003c                          : PINCC26XX.oem4f (.text:PIN_setOutputValue)
                  00004cc0    0000003c     dpl_cc13x2.aem4f : SwiP_tirtos.oem4f (.text:SwiP_construct)
                  00004cfc    0000003c     rom_sysbios.aem4f : rom_sysbios.obj (.text:ti_sysbios_family_arm_m3_Hwi_construct2__E)
                  00004d38    00000038     drivers_cc13x2.aem4f : PINCC26XX.oem4f (.text:PIN_setConfig)
                  00004d70    00000038                          : PowerCC26X2.oem4f (.text:notify)
                  00004da8    00000038                          : UARTCC26XX.oem4f (.text:readData)
                  00004de0    00000038     rtsv7M4_T_le_v4SPD16_eabi.lib : fs_tod_t2.asm.obj (.text)
                  00004e18    00000038     drivers_cc13x2.aem4f : UARTCC26XX.oem4f (.text:writeData)
                  00004e50    00000036     rom_sysbios.aem4f : rom_sysbios.obj (.text:ti_sysbios_family_arm_cc26xx_Timer_setNextTick__E)
                  00004e86    00000002     --HOLE-- [fill = 0]
                  00004e88    00000034     drivers_cc13x2.aem4f : GPIOCC26XX.oem4f (.text:GPIO_toggle)
                  00004ebc    00000034     driverlib.lib : aux_sysif.obj (.text:NOROM_AUXSYSIFOpModeChange)
                  00004ef0    00000034                   : sys_ctrl.obj (.text:NOROM_SysCtrlIdle)
                  00004f24    00000034     drivers_cc13x2.aem4f : I2SCC26XX.oem4f (.text:computeSCKDivider)
                  00004f58    00000034                          : UARTCC26XX.oem4f (.text:readData2RingBuf)
                  00004f8c    00000032     PDMCC26XX.obj (.text:PDM_startStream)
                  00004fbe    00000002     --HOLE-- [fill = 0]
                  00004fc0    00000030     drivers_cc13x2.aem4f : GPIOCC26XX.oem4f (.text:GPIO_hwiIntFxn)
                  00004ff0    00000030                          : GPIOCC26XX.oem4f (.text:GPIO_setCallback)
                  00005020    00000030                          : I2SCC26XX.oem4f (.text:I2S_init)
                  00005050    00000030                          : PINCC26XX.oem4f (.text:PINCC26XX_setMux)
                  00005080    00000030     driverlib.lib : prcm.obj (.text:PRCMAudioClockConfigOverride)
                  000050b0    00000030     drivers_cc13x2.aem4f : PowerCC26X2.oem4f (.text:Power_releaseConstraint)
                  000050e0    00000030                          : PowerCC26X2.oem4f (.text:Power_setConstraint)
                  00005110    00000030     release_pem4f.oem4f (.text:ti_sysbios_BIOS_atExitFunc__I)
                  00005140    00000030     release_pem4f.oem4f (.text:ti_sysbios_BIOS_startFunc__I)
                  00005170    00000030     rom_sysbios.aem4f : rom_sysbios.obj (.text:ti_sysbios_family_arm_cc26xx_Timer_getCurrentTick__E)
                  000051a0    00000030                       : rom_sysbios.obj (.text:ti_sysbios_family_arm_cc26xx_Timer_initDevice__I)
                  000051d0    0000002e     PDM.obj (.text:PDM_Transaction_init)
                  000051fe    0000002e     rtsv7M4_T_le_v4SPD16_eabi.lib : i_tofd_t2.asm.obj (.text)
                  0000522c    0000002c     PDMFilterTI.obj (.text:PDMTiFilter_setPrefilterGain)
                  00005258    0000002c     PDMCC26XX.obj (.text:PDM_close)
                  00005284    0000002c     dpl_cc13x2.aem4f : SemaphoreP_tirtos.oem4f (.text:SemaphoreP_constructBinary)
                  000052b0    0000002c                      : SemaphoreP_tirtos.oem4f (.text:SemaphoreP_createBinary)
                  000052dc    0000002c     rom_sysbios.aem4f : rom_sysbios.obj (.text:_pthread_delete$45)
                  00005308    0000002c                       : rom_sysbios.obj (.text:pthread_setcancelstate)
                  00005334    0000002c                       : rom_sysbios.obj (.text:ti_sysbios_knl_Clock_getTicksUntilInterrupt__E)
                  00005360    00000028     drivers_cc13x2.aem4f : I2SCC26XX.oem4f (.text:I2S_startClocks)
                  00005388    00000028     PDMCC26XX.obj (.text:PDM_stopStream)
                  000053b0    00000028     drivers_cc13x2.aem4f : PowerCC26X2.oem4f (.text:Power_registerNotify)
                  000053d8    00000028     pdmstream.obj (.text:gpioButtonFxn0)
                  00005400    00000028     pdmstream.obj (.text:gpioButtonFxn1)
                  00005428    00000028     drivers_cc13x2.aem4f : PowerCC26X2.oem4f (.text:oscillatorISR)
                  00005450    00000026                          : List.oem4f (.text:List_put)
                  00005476    00000026                          : List.oem4f (.text:List_remove)
                  0000549c    00000024     driverlib.lib : osc.obj (.text:NOROM_OSCHF_TurnOnXosc)
                  000054c0    00000024     rom_sysbios.aem4f : rom_sysbios.obj (.text:_pthread_cleanupFxn)
                  000054e4    00000024     drivers_cc13x2.aem4f : I2SCC26XX.oem4f (.text:enableClocks)
                  00005508    00000024                          : PowerCC26X2_calibrateRCOSC.oem4f (.text:getTdcSemaphore)
                  0000552c    00000024     rom_sysbios.aem4f : rom_sysbios.obj (.text:pthread_attr_init)
                  00005550    00000024     release_pem4f.oem4f (.text:ti_sysbios_BIOS_registerRTSLock__I)
                  00005574    00000024     release_pem4f.oem4f (.text:ti_sysbios_BIOS_removeRTSLock__I)
                  00005598    00000024     rom_sysbios.aem4f : rom_sysbios.obj (.text:ti_sysbios_family_arm_cc26xx_Timer_getMaxTicks__E)
                  000055bc    00000020     drivers_cc13x2.aem4f : PINCC26XX.oem4f (.text:PINCC26XX_setIoCfgMux)
                  000055dc    00000020                          : PowerCC26X2.oem4f (.text:Power_unregisterNotify)
                  000055fc    00000020                          : I2SCC26XX.oem4f (.text:getNumberOfChannels)
                  0000561c    00000020                          : UARTCC26XX.oem4f (.text:threadSafeStdbyDisRelease)
                  0000563c    00000020                          : UARTCC26XX.oem4f (.text:threadSafeStdbyDisSet)
                  0000565c    00000020     release_pem4f.oem4f (.text:ti_sysbios_BIOS_rtsLock__I)
                  0000567c    00000020     rom_sysbios.aem4f : rom_sysbios.obj (.text:ti_sysbios_family_arm_cc26xx_Timer_dynamicStub__E)
                  0000569c    00000020                       : rom_sysbios.obj (.text:xdc_runtime_Error_policyMin__E)
                  000056bc    0000001e     PDMFilterTI.obj (.text:PDMTiFilter_d64OneLine_get)
                  000056da    0000001e     drivers_cc13x2.aem4f : PINCC26XX.oem4f (.text:PIN_close)
                  000056f8    0000001e                          : PowerCC26X2.oem4f (.text:Power_getTransitionLatency)
                  00005716    00000002     --HOLE-- [fill = 0]
                  00005718    0000001c     CC1352R1_LAUNCHXL.obj (.text:CC1352R1_LAUNCHXL_initGeneral)
                  00005734    0000001c     driverlib.lib : chipinfo.obj (.text:NOROM_ChipInfo_GetChipFamily)
                  00005750    0000001c     drivers_cc13x2.aem4f : PINCC26XX.oem4f (.text:PIN_hwi)
                  0000576c    0000001c     dpl_cc13x2.aem4f : PowerCC26X2_tirtos.oem4f (.text:PowerCC26XX_schedulerDisable)
                  00005788    0000001c                      : PowerCC26X2_tirtos.oem4f (.text:PowerCC26XX_schedulerRestore)
                  000057a4    0000001c     drivers_cc13x2.aem4f : I2SCC26XX.oem4f (.text:configChannels)
                  000057c0    0000001c     rom_sysbios.aem4f : rom_sysbios.obj (.text:ti_sysbios_family_arm_m3_Hwi_clearInterrupt__E)
                  000057dc    0000001c                       : rom_sysbios.obj (.text:ti_sysbios_knl_Swi_construct2__E)
                  000057f8    0000001c     release_pem4f.oem4f (.text:xdc_runtime_Startup_exec__I)
                  00005814    0000001a     drivers_cc13x2.aem4f : PowerCC26X2.oem4f (.text:PowerCC26XX_calibrate)
                  0000582e    00000002     --HOLE-- [fill = 0]
                  00005830    00000018                          : I2S.oem4f (.text:I2S_Params_init)
                  00005848    00000018     driverlib.lib : chipinfo.obj (.text:NOROM_ChipInfo_GetPackageType)
                  00005860    00000018     PDM.obj (.text:PDM_Params_init)
                  00005878    00000018     drivers_cc13x2.aem4f : PowerCC26X2.oem4f (.text:Power_idleFunc)
                  00005890    00000018                          : UART.oem4f (.text:UART_Params_init)
                  000058a8    00000018     rtsv7M4_T_le_v4SPD16_eabi.lib : args_main.c.obj (.text:_args_main)
                  000058c0    00000018                                   : ll_mul_t2.asm.obj (.text)
                  000058d8    00000018     drivers_cc13x2.aem4f : PowerCC26X2.oem4f (.text:switchToTCXO)
                  000058f0    00000018     release_pem4f.oem4f (.text:ti_sysbios_BIOS_rtsUnlock__I)
                  00005908    00000018     rom_sysbios.aem4f : rom_sysbios.obj (.text:ti_sysbios_knl_Swi_or__E)
                  00005920    00000018                       : rom_sysbios.obj (.text:xdc_runtime_Error_init__E)
                  00005938    00000016     driverlib.lib : chipinfo.obj (.text:NOROM_ThisLibraryIsFor_CC13x2_CC26x2_HwRev20AndLater_HaltIfViolated)
                  0000594e    00000016     rom_sysbios.aem4f : rom_sysbios.obj (.text:_pthread_cleanup_pop)
                  00005964    00000016     drivers_cc13x2.aem4f : I2SCC26XX.oem4f (.text:initHw)
                  0000597a    00000016     release_pem4f.oem4f (.text:ti_sysbios_BIOS_exitFunc__I)
                  00005990    00000016     pdmstream.obj (.text:ti_sysbios_knl_Event_Params_init)
                  000059a6    00000014     PDMCC26XX.obj (.text:PDM_startClock)
                  000059ba    00000014     PDMCC26XX.obj (.text:PDM_stopClock)
                  000059ce    00000014     drivers_cc13x2.aem4f : PowerCC26X2_calibrateRCOSC.oem4f (.text:PowerCC26X2_calibrate)
                  000059e2    00000014     rom_sysbios.aem4f : rom_sysbios.obj (.text:pthread_attr_setschedparam)
                  000059f6    00000002     --HOLE-- [fill = 0]
                  000059f8    00000014                       : rom_sysbios.obj (.text:ti_sysbios_family_arm_cc26xx_Timer_getCount64__E)
                  00005a0c    00000014     release_pem4f.oem4f (.text:ti_sysbios_knl_Clock_doTick__I)
                  00005a20    00000012     drivers_cc13x2.aem4f : RingBuf.oem4f (.text:RingBuf_construct)
                  00005a32    00000012     dpl_cc13x2.aem4f : SemaphoreP_tirtos.oem4f (.text:SemaphoreP_pend)
                  00005a44    00000012     rom_sysbios.aem4f : rom_sysbios.obj (.text:_pthread_runStub$45)
                  00005a56    00000010     dpl_cc13x2.aem4f : HwiP_tirtos.oem4f (.text:HwiP_Params_init)
                  00005a66    00000002     --HOLE-- [fill = 0]
                  00005a68    00000010     drivers_cc13x2.aem4f : PINCC26XX.oem4f (.text:PINCC26XX_getPinCount)
                  00005a78    00000010     dpl_cc13x2.aem4f : SwiP_tirtos.oem4f (.text:SwiP_Params_init)
                  00005a88    00000010     drivers_cc13x2.aem4f : I2SCC26XX.oem4f (.text:i2sPostNotify)
                  00005a98    00000010                          : UARTCC26XX.oem4f (.text:uartPostNotify)
                  00005aa8    0000000e     pdmstream.obj (.text:List_head)
                  00005ab6    0000000e     PDMCC26XX.obj (.text:List_next)
                  00005ac4    0000000e     pdmstream.obj (.text:List_tail)
                  00005ad2    0000000e     rtsv7M4_T_le_v4SPD16_eabi.lib : copy_decompress_none.c.obj (.text:decompress:none:__TI_decompress_none)
                  00005ae0    0000000e     rom_sysbios.aem4f : rom_sysbios.obj (.text:pthread_attr_setdetachstate)
                  00005aee    0000000e                       : rom_sysbios.obj (.text:ti_sysbios_family_arm_cc26xx_TimestampProvider_get32__E)
                  00005afc    0000000c     dpl_cc13x2.aem4f : ClockP_tirtos.oem4f (.text:ClockP_getSystemTickPeriod)
                  00005b08    0000000c     drivers_cc13x2.aem4f : I2SCC26XX.oem4f (.text:I2SInPointerSet)
                  00005b14    0000000c                          : I2SCC26XX.oem4f (.text:I2SOutPointerSet)
                  00005b20    0000000c     driverlib.lib : cpu.obj (.text:NOROM_CPUcpsid)
                  00005b2c    0000000c                   : cpu.obj (.text:NOROM_CPUcpsie)
                  00005b38    0000000c                   : prcm.obj (.text:NOROM_PRCMAudioClockExternalSource)
                  00005b44    0000000c                   : prcm.obj (.text:NOROM_PRCMAudioClockInternalSource)
                  00005b50    0000000c     drivers_cc13x2.aem4f : PINCC26XX.oem4f (.text:PIN_registerIntCb)
                  00005b5c    0000000c                          : PowerCC26X2.oem4f (.text:Power_getConstraintMask)
                  00005b68    0000000c                          : PowerCC26X2.oem4f (.text:Power_getDependencyCount)
                  00005b74    0000000c     dpl_cc13x2.aem4f : SemaphoreP_tirtos.oem4f (.text:SemaphoreP_delete)
                  00005b80    0000000c     rtsv7M4_T_le_v4SPD16_eabi.lib : _lock.c.obj (.text:_register_lock)
                  00005b8c    0000000c                                   : _lock.c.obj (.text:_register_unlock)
                  00005b98    0000000c                                   : copy_zero_init.c.obj (.text:decompress:ZI:__TI_zero_init)
                  00005ba4    0000000c     rom_sysbios.aem4f : rom_sysbios.obj (.text:pthread_self)
                  00005bb0    0000000c     pdmstream.obj (.text:ti_sysbios_knl_Event_handle)
                  00005bbc    0000000c     rom_sysbios.aem4f : rom_sysbios.obj (.text:ti_sysbios_knl_Queue_insert__E)
                  00005bc8    0000000c                       : rom_sysbios.obj (.text:ti_sysbios_knl_Swi_getTrigger__E)
                  00005bd4    0000000a     dpl_cc13x2.aem4f : ClockP_tirtos.oem4f (.text:ClockP_Params_init)
                  00005bde    0000000a     drivers_cc13x2.aem4f : UART.oem4f (.text:UART_write)
                  00005be8    00000008     CC1352R1_LAUNCHXL.obj (.text:Board_init)
                  00005bf0    00000008     CC1352R1_LAUNCHXL_fxns.obj (.text:Board_initHook)
                  00005bf8    00000008     drivers_cc13x2.aem4f : UARTCC26XX.oem4f (.text:UARTCC26XX_init)
                  00005c00    00000008                          : UARTCC26XX.oem4f (.text:readSemCallback)
                  00005c08    00000008                          : UARTCC26XX.oem4f (.text:writeSemCallback)
                  00005c10    00000008     release_pem4f.oem4f (.text:xdc_runtime_Text_visitRope__I)
                  00005c18    00000006     drivers_cc13x2.aem4f : I2SCC26XX.oem4f (.text:I2S_setReadQueueHead)
                  00005c1e    00000006     driverlib.lib : cpu.obj (.text:NOROM_CPUdelay)
                  00005c24    00000006     drivers_cc13x2.aem4f : UARTCC26XX.oem4f (.text:UARTCC26XX_readPolling)
                  00005c2a    00000006                          : UARTCC26XX.oem4f (.text:UARTCC26XX_writePolling)
                  00005c30    00000006                          : PowerCC26X2.oem4f (.text:delayUs)
                  00005c36    00000006     rom_sysbios.aem4f : rom_sysbios.obj (.text:pthread_attr_setstacksize)
                  00005c3c    00000004     dpl_cc13x2.aem4f : PowerCC26X2_tirtos.oem4f (.text:CPUwfi)
                  00005c40    00000004                      : ClockP_tirtos.oem4f (.text:ClockP_destruct)
                  00005c44    00000004                      : ClockP_tirtos.oem4f (.text:ClockP_getCpuFreq)
                  00005c48    00000004                      : ClockP_tirtos.oem4f (.text:ClockP_setTimeout)
                  00005c4c    00000004                      : ClockP_tirtos.oem4f (.text:ClockP_start)
                  00005c50    00000004                      : ClockP_tirtos.oem4f (.text:ClockP_stop)
                  00005c54    00000004                      : HwiP_tirtos.oem4f (.text:HwiP_clearInterrupt)
                  00005c58    00000004                      : HwiP_tirtos.oem4f (.text:HwiP_destruct)
                  00005c5c    00000004                      : HwiP_tirtos.oem4f (.text:HwiP_disable)
                  00005c60    00000004                      : SemaphoreP_tirtos.oem4f (.text:SemaphoreP_destruct)
                  00005c64    00000004                      : SemaphoreP_tirtos.oem4f (.text:SemaphoreP_post)
                  00005c68    00000004                      : SwiP_tirtos.oem4f (.text:SwiP_destruct)
                  00005c6c    00000004                      : SwiP_tirtos.oem4f (.text:SwiP_getTrigger)
                  00005c70    00000004                      : SwiP_tirtos.oem4f (.text:SwiP_or)
                  00005c74    00000004     drivers_cc13x2.aem4f : PowerCC26X2.oem4f (.text:configureRFCoreClocks)
                  00005c78    00000004                          : PowerCC26X2.oem4f (.text:nopResourceHandler)
                  00005c7c    00000004     rom_sysbios.aem4f : rom_sysbios.obj (.text:ti_sysbios_knl_Task_getArg1__E)
                  00005c80    00000004                       : rom_sysbios.obj (.text:ti_sysbios_knl_Task_getEnv__E)
                  00005c84    00000004     release_pem4f.oem4f (.text:xdc_runtime_Startup_reset__I)
                  00005c88    00000004     rom_sysbios.aem4f : rom_sysbios.obj (.text:xdc_runtime_SysCallback_defaultReady)
                  00005c8c    00000008     (.tramp.ti_sysbios_knl_Swi_destruct.1)
                  00005c94    00000008     (.tramp.ti_sysbios_family_arm_m3_Hwi_disableFxn__E.1)
                  00005c9c    00000008     (.tramp.ti_sysbios_family_arm_m3_Hwi_destruct.1)
                  00005ca4    00000008     (.tramp.ti_sysbios_BIOS_getCpuFreq__E.1)
                  00005cac    00000008     (.tramp.ti_sysbios_knl_Clock_destruct.1)
                  00005cb4    00000008     (.tramp.ti_sysbios_knl_Task_self__E.1)
                  00005cbc    00000008     (.tramp.ti_sysbios_knl_Semaphore_delete.1)
                  00005cc4    00000008     (.tramp.ti_sysbios_knl_Clock_logTick__E.1)
                  00005ccc    00000008     (.tramp.ti_sysbios_knl_Event_Params__init__S.1)
                  00005cd4    00000008     (.tramp.ti_sysbios_knl_Swi_post__E.1)
                  00005cdc    00000008     (.tramp.ti_sysbios_BIOS_RtsGateProxy_leave__E.1)
                  00005ce4    00000008     (.tramp.ti_sysbios_knl_Swi_construct.1)
                  00005cec    00000008     (.tramp.ti_sysbios_knl_Swi_restore__E.1)
                  00005cf4    00000008     (.tramp.ti_sysbios_BIOS_RtsGateProxy_enter__E.1)
                  00005cfc    00000008     (.tramp.ti_sysbios_knl_Clock_TimerProxy_getCurrentTick__E.1)
                  00005d04    00000008     (.tramp.ti_sysbios_knl_Task_delete.1)
                  00005d0c    00000008     (.tramp.ti_sysbios_knl_Semaphore_destruct.1)
                  00005d14    00000008     (.tramp.ti_sysbios_knl_Semaphore_create.1)
                  00005d1c    00000008     (.tramp.ti_sysbios_knl_Task_startup__E.1)
                  00005d24    00000008     (.tramp.ti_sysbios_knl_Swi_startup__E.1)
                  00005d2c    00000008     (.tramp.ti_sysbios_hal_Hwi_startup__E.1)
                  00005d34    00000008     (.tramp.ti_sysbios_family_arm_cc26xx_Timer_startup__E.1)
                  00005d3c    00000008     (.tramp.xdc_runtime_System_atexit__E.1)
                  00005d44    00000008     (.tramp.ti_sysbios_BIOS_linkedWithIncorrectBootLibrary__E.1)
                  00005d4c    00000008     (.tramp.xdc_runtime_Startup_rtsDone__E.1)
                  00005d54    00000008     (.tramp.ti_sysbios_knl_Swi_disable__E.1)
                  00005d5c    00000008     (.tramp.ti_sysbios_family_arm_m3_Hwi_construct.1)
                  00005d64    00000008     (.tramp.ti_sysbios_knl_Swi_Params__init__S.1)
                  00005d6c    00000008     (.tramp.ti_sysbios_family_arm_m3_Hwi_Params__init__S.1)
                  00005d74    00000008     (.tramp.ti_sysbios_knl_Clock_construct.1)
                  00005d7c    00000008     (.tramp.ti_sysbios_knl_Clock_Params__init__S.1)
                  00005d84    00000008     (.tramp.xdc_runtime_System_exit__E.1)
                  00005d8c    00000008     (.tramp.ti_sysbios_heaps_HeapMem_restore__E.1)
                  00005d94    00000008     (.tramp.ti_sysbios_heaps_HeapMem_Object__get__S.1)
                  00005d9c    00000008     (.tramp.ti_sysbios_BIOS_start__E.1)
                  00005da4    00000008     (.tramp.xdc_runtime_Error_raiseX__E.1)
                  00005dac    00000008     (.tramp.ti_sysbios_BIOS_setThreadType__E.1)
                  00005db4    00000008     (.tramp.ti_sysbios_family_arm_m3_Hwi_excFillContext__I.1)
                  00005dbc    00000008     (.tramp.ti_sysbios_knl_Semaphore_post__E.1)
                  00005dc4    00000008     (.tramp.xdc_runtime_Memory_free__E.1)
                  00005dcc    00000008     (.tramp.ti_sysbios_knl_Queue_next__E.1)
                  00005dd4    00000008     (.tramp.ti_sysbios_knl_Queue_head__E.1)
                  00005ddc    00000008     (.tramp.ti_sysbios_knl_Semaphore_pend__E.1)
                  00005de4    00000008     (.tramp.ti_sysbios_knl_Task_restore__E.1)
                  00005dec    00000008     (.tramp.ti_sysbios_knl_Queue_enqueue__E.1)
                  00005df4    00000008     (.tramp.ti_sysbios_knl_Queue_empty__E.1)
                  00005dfc    00000008     (.tramp.ti_sysbios_knl_Queue_remove__E.1)
                  00005e04    00000008     (.tramp.ti_sysbios_knl_Task_disable__E.1)
                  00005e0c    00000008     (.tramp.ti_sysbios_knl_Clock_stop__E.1)
                  00005e14    00000008     (.tramp.ti_sysbios_knl_Clock_start__E.1)
                  00005e1c    00000008     (.tramp.ti_sysbios_knl_Clock_setTimeout__E.1)
                  00005e24    00000008     (.tramp.ti_sysbios_knl_Task_create.1)
                  00005e2c    00000008     (.tramp.ti_sysbios_knl_Semaphore_construct.1)
                  00005e34    00000008     (.tramp.ti_sysbios_knl_Semaphore_Params__init__S.1)
                  00005e3c    00000008     (.tramp.ti_sysbios_knl_Queue_construct.1)
                  00005e44    00000008     (.tramp.xdc_runtime_Memory_alloc__E.1)
                  00005e4c    00000008     (.tramp.ti_sysbios_knl_Task_Params__init__S.1)
                  00005e54    00000008     (.tramp.ti_sysbios_family_arm_m3_Hwi_restoreFxn__E.1)
                  00005e5c    00000008     (.tramp.xdc_runtime_System_doPrint__I.1)
                  00005e64    00000008     (.tramp.ti_sysbios_knl_Event_post__E.1)
                  00005e6c    00000008     (.tramp.ti_sysbios_knl_Event_pend__E.1)
                  00005e74    00000008     (.tramp.ti_sysbios_knl_Event_construct.1)

.const     0    00005e7c    00000860     
                  00005e7c    000003b8     release_pem4f.oem4f (.const:ROM_constStruct)
                  00006234    000000b2     drivers_cc13x2.aem4f : Codec1.oem4f (.const:Codec1_stepsizeLut)
                  000062e6    00000001     release_pem4f.oem4f (.const:xdc_runtime_Text_charTab__A)
                  000062e7    00000001     --HOLE-- [fill = 0]
                  000062e8    0000006c     PDMFilterTI.obj (.const:PDM_aBqCoeffs)
                  00006354    00000054     drivers_cc13x2.aem4f : PowerCC26X2.oem4f (.const:resourceDB)
                  000063a8    00000050     CC1352R1_LAUNCHXL.obj (.const:uartCC26XXHWAttrs)
                  000063f8    00000048     release_pem4f.oem4f (.const:.string)
                  00006440    00000048     release_pem4f.oem4f (.const:ROM_externFuncPtrs)
                  00006488    0000002c     CC1352R1_LAUNCHXL.obj (.const:BoardGpioInitTable)
                  000064b4    0000002c     drivers_cc13x2.aem4f : I2S.oem4f (.const:I2S_defaultParams)
                  000064e0    00000028                          : UARTCC26XX.oem4f (.const:UARTCC26XX_fxnTable)
                  00006508    00000024                          : UART.oem4f (.const:UART_defaultParams)
                  0000652c    00000024     release_pem4f.oem4f (.const:xdc_runtime_Startup_sfxnTab__A)
                  00006550    00000018     CC1352R1_LAUNCHXL.obj (.const)
                  00006568    00000018     PDM.obj (.const:PDM_defaultParams)
                  00006580    00000018     CC1352R1_LAUNCHXL.obj (.const:UART_config)
                  00006598    00000018     drivers_cc13x2.aem4f : GPIOCC26XX.oem4f (.const:interruptType)
                  000065b0    00000014     CC1352R1_LAUNCHXL_fxns.obj (.const:$P$T1$2)
                  000065c4    00000014     CC1352R1_LAUNCHXL.obj (.const:GPIOCC26XX_config)
                  000065d8    00000014     CC1352R1_LAUNCHXL.obj (.const:PowerCC26X2_config)
                  000065ec    00000014     drivers_cc13x2.aem4f : UARTCC26XX.oem4f (.const:parityType)
                  00006600    00000012     release_pem4f.oem4f (.const:xdc_runtime_Startup_sfxnRts__A)
                  00006612    00000010     drivers_cc13x2.aem4f : Codec1.oem4f (.const:.string:Codec1_IndexLut)
                  00006622    00000002     --HOLE-- [fill = 0]
                  00006624    00000010                          : UARTCC26XX.oem4f (.const:dataLength)
                  00006634    00000010                          : GPIOCC26XX.oem4f (.const:outPinTypes)
                  00006644    0000000c                          : GPIOCC26XX.oem4f (.const:inPinTypes)
                  00006650    0000000c                          : GPIOCC26XX.oem4f (.const:outPinStrengths)
                  0000665c    0000000c     release_pem4f.oem4f (.const:xdc_runtime_Startup_firstFxns__A)
                  00006668    00000008     driverlib.lib : aux_sysif.obj (.const:$O1$$)
                  00006670    00000008     CC1352R1_LAUNCHXL_fxns.obj (.const:$P$T0$1)
                  00006678    00000008     CC1352R1_LAUNCHXL.obj (.const:I2S_config)
                  00006680    00000008     CC1352R1_LAUNCHXL.obj (.const:PDM_config)
                  00006688    00000008     CC1352R1_LAUNCHXL.obj (.const:PINCC26XX_hwAttrs)
                  00006690    00000008     drivers_cc13x2.aem4f : UARTCC26XX.oem4f (.const:stopBits)
                  00006698    00000008     release_pem4f.oem4f (.const:ti_sysbios_family_arm_m3_Hwi_excHookFuncs__A)
                  000066a0    00000008     release_pem4f.oem4f (.const:ti_sysbios_knl_Idle_funcList__A)
                  000066a8    00000006     drivers_cc13x2.aem4f : UARTCC26XX.oem4f (.const:.string:rxFifoBytes)
                  000066ae    00000006                          : UARTCC26XX.oem4f (.const:.string:rxFifoThreshold)
                  000066b4    00000006                          : UARTCC26XX.oem4f (.const:.string:txFifoBytes)
                  000066ba    00000006                          : UARTCC26XX.oem4f (.const:.string:txFifoThreshold)
                  000066c0    00000006     CC1352R1_LAUNCHXL.obj (.const:i2sCC26XXHWAttrs)
                  000066c6    00000002     --HOLE-- [fill = 0]
                  000066c8    00000004     release_pem4f.oem4f (.const:ti_sysbios_family_arm_m3_Hwi_E_exception__C)
                  000066cc    00000004     release_pem4f.oem4f (.const:ti_sysbios_heaps_HeapMem_primaryHeapBaseAddr__C)
                  000066d0    00000004     release_pem4f.oem4f (.const:ti_sysbios_heaps_HeapMem_primaryHeapEndAddr__C)
                  000066d4    00000004     release_pem4f.oem4f (.const:ti_sysbios_knl_Clock_tickPeriod__C)
                  000066d8    00000004     release_pem4f.oem4f (.const:ti_sysbios_knl_Task_Object__heap__C)

MODULE SUMMARY

       Module                             code    ro data   rw data
       ------                             ----    -------   -------
    .\
       pdmstream.obj                      966     0         2022   
       CC1352R1_LAUNCHXL.obj              36      242       968    
       CC1352R1_LAUNCHXL_fxns.obj         280     28        0      
       main_tirtos.obj                    100     0         0      
       ccfg.obj                           0       88        0      
    +--+----------------------------------+-------+---------+---------+
       Total:                             1382    358       2990   
                                                                   
    .\PDM Driver Filters\
       pdm2pcm_OneLine_M4_ccs.obj         1084    1024      0      
       PDMFilterTI.obj                    74      108       36     
       PDMFilterCustom.obj                0       0         4      
    +--+----------------------------------+-------+---------+---------+
       Total:                             1158    1132      40     
                                                                   
    .\PDM Driver\
       PDMCC26XX.obj                      1154    0         1      
       PDM.obj                            70      24        0      
    +--+----------------------------------+-------+---------+---------+
       Total:                             1224    24        1      
                                                                   
    C:\Users\sabbe\workspace_v11\tirtos_builds_CC1352R1_LAUNCHXL_release_ccs\Debug\configPkg\package\cfg\
       release_pem4f.oem4f                792     1259      1830   
    +--+----------------------------------+-------+---------+---------+
       Total:                             792     1259      1830   
                                                                   
    C:/ti/simplelink_cc13x2_26x2_sdk_4_20_01_04/kernel/tirtos/packages/ti/dpl/lib/dpl_cc13x2.aem4f
       PowerCC26X2_tirtos.oem4f           240     0         8      
       SemaphoreP_tirtos.oem4f            126     0         0      
       ClockP_tirtos.oem4f                106     0         0      
       HwiP_tirtos.oem4f                  90      0         0      
       SwiP_tirtos.oem4f                  88      0         0      
    +--+----------------------------------+-------+---------+---------+
       Total:                             650     0         8      
                                                                   
    C:/ti/simplelink_cc13x2_26x2_sdk_4_20_01_04/source/ti/devices/cc13x2_cc26x2/driverlib/bin/ccs/driverlib.lib
       sys_ctrl.obj                       428     0         0      
       osc.obj                            340     0         36     
       setup.obj                          324     0         0      
       prcm.obj                           232     0         0      
       chipinfo.obj                       226     0         0      
       aux_sysif.obj                      52      8         0      
       cpu.obj                            30      0         0      
       driverlib_release.obj              0       0         1      
    +--+----------------------------------+-------+---------+---------+
       Total:                             1632    8         37     
                                                                   
    C:/ti/simplelink_cc13x2_26x2_sdk_4_20_01_04/source/ti/drivers/lib/drivers_cc13x2.aem4f
       UARTCC26XX.oem4f                   2758    108       0      
       PowerCC26X2.oem4f                  2096    84        308    
       I2SCC26XX.oem4f                    2280    0         1      
       PINCC26XX.oem4f                    1558    0         276    
       PowerCC26X2_calibrateRCOSC.oem4f   1400    0         0      
       GPIOCC26XX.oem4f                   792     64        61     
       Codec1.oem4f                       296     194       6      
       UART.oem4f                         166     36        1      
       RingBuf.oem4f                      152     0         0      
       SPICC26X2DMA.oem4f                 0       0         128    
       List.oem4f                         76      0         0      
       I2S.oem4f                          24      44        0      
       ADCBufCC26X2.oem4f                 0       0         32     
    +--+----------------------------------+-------+---------+---------+
       Total:                             11598   530       813    
                                                                   
    C:\Users\sabbe\workspace_v11\tirtos_builds_CC1352R1_LAUNCHXL_release_ccs\src\sysbios\rom_sysbios.aem4f
       rom_sysbios.obj                    1933    0         136    
    +--+----------------------------------+-------+---------+---------+
       Total:                             1933    0         136    
                                                                   
    C:\ti\ccs1010\ccs\tools\compiler\ti-cgt-arm_20.2.1.LTS\lib\rtsv7M4_T_le_v4SPD16_eabi.lib
       fd_add_t2.asm.obj                  438     0         0      
       fd_cmp_t2.asm.obj                  268     0         0      
       fd_mul_t2.asm.obj                  252     0         0      
       memcpy_t2.asm.obj                  156     0         0      
       ull_div_t2.asm.obj                 150     0         0      
       memset_t2.asm.obj                  122     0         0      
       copy_decompress_lzss.c.obj         104     0         0      
       cpy_tbl.c.obj                      76      0         0      
       fd_toi_t2.asm.obj                  72      0         0      
       fd_tou_t2.asm.obj                  68      0         0      
       u_divt2.asm.obj                    64      0         0      
       fs_tod_t2.asm.obj                  56      0         0      
       i_tofd_t2.asm.obj                  46      0         0      
       _lock.c.obj                        26      0         8      
       args_main.c.obj                    24      0         0      
       ll_mul_t2.asm.obj                  24      0         0      
       copy_decompress_none.c.obj         14      0         0      
       copy_zero_init.c.obj               12      0         0      
       stkdepth_vars.c.obj                0       0         4      
       div0.asm.obj                       2       0         0      
    +--+----------------------------------+-------+---------+---------+
       Total:                             1974    0         12     
                                                                   
    C:\ti\simplelink_cc13x2_26x2_sdk_4_20_01_04\kernel\tirtos\packages\ti\targets\arm\rtsarm\lib\auto_init.aem4f
       auto_init.oem4f                    160     0         0      
    +--+----------------------------------+-------+---------+---------+
       Total:                             160     0         0      
                                                                   
    C:\ti\simplelink_cc13x2_26x2_sdk_4_20_01_04\kernel\tirtos\packages\ti\targets\arm\rtsarm\lib\boot.aem4f
       boot.oem4f                         88      0         0      
    +--+----------------------------------+-------+---------+---------+
       Total:                             88      0         0      
                                                                   
       Stack:                             0       0         1024   
       Linker Generated:                  496     731       0      
    +--+----------------------------------+-------+---------+---------+
       Grand Total:                       23087   4042      6891   


LINKER GENERATED COPY TABLES

__TI_cinit_table @ 00006948 records: 15, size/record: 8, table size: 120
	.data: load addr=000066e0, load size=000001e7 bytes, run addr=20001038, run size=00000640 bytes, compression=lzss
	.TI.bound:dmaADCAltControlTableEntry: load addr=000068d8, load size=00000008 bytes, run addr=20001a70, run size=00000010 bytes, compression=zero_init
	.TI.bound:dmaADCPriControlTableEntry: load addr=000068e0, load size=00000008 bytes, run addr=20001870, run size=00000010 bytes, compression=zero_init
	.TI.bound:dmaSpi0RxAltControlTableEntry: load addr=000068e8, load size=00000008 bytes, run addr=20001a30, run size=00000010 bytes, compression=zero_init
	.TI.bound:dmaSpi0RxControlTableEntry: load addr=000068f0, load size=00000008 bytes, run addr=20001830, run size=00000010 bytes, compression=zero_init
	.TI.bound:dmaSpi0TxAltControlTableEntry: load addr=000068f8, load size=00000008 bytes, run addr=20001a40, run size=00000010 bytes, compression=zero_init
	.TI.bound:dmaSpi0TxControlTableEntry: load addr=00006900, load size=00000008 bytes, run addr=20001840, run size=00000010 bytes, compression=zero_init
	.TI.bound:dmaSpi1RxAltControlTableEntry: load addr=00006908, load size=00000008 bytes, run addr=20001b00, run size=00000010 bytes, compression=zero_init
	.TI.bound:dmaSpi1RxControlTableEntry: load addr=00006910, load size=00000008 bytes, run addr=20001900, run size=00000010 bytes, compression=zero_init
	.TI.bound:dmaSpi1TxAltControlTableEntry: load addr=00006918, load size=00000008 bytes, run addr=20001b10, run size=00000010 bytes, compression=zero_init
	.TI.bound:dmaSpi1TxControlTableEntry: load addr=00006920, load size=00000008 bytes, run addr=20001910, run size=00000010 bytes, compression=zero_init
	.bss: load addr=00006928, load size=00000008 bytes, run addr=20000110, run size=00000f28 bytes, compression=zero_init
	.data:xdcRomConstPtr: load addr=00006930, load size=00000008 bytes, run addr=20000100, run size=00000004 bytes, compression=lzss
	.data:xdcRomExternFuncPtr: load addr=00006938, load size=00000008 bytes, run addr=20000104, run size=00000004 bytes, compression=lzss
	.data:xdcRomStatePtr: load addr=00006940, load size=00000008 bytes, run addr=20000108, run size=00000004 bytes, compression=lzss


LINKER GENERATED HANDLER TABLE

__TI_handler_table @ 000068c8 records: 3, size/record: 4, table size: 12
	index: 0, handler: __TI_decompress_lzss
	index: 1, handler: __TI_decompress_none
	index: 2, handler: __TI_zero_init


FAR CALL TRAMPOLINES

callee name               trampoline name
   callee addr  tramp addr   call addr  call info
--------------  -----------  ---------  ----------------
ti_sysbios_knl_Swi_destruct  $Tramp$TT$L$PI$$ti_sysbios_knl_Swi_destruct
   1002e8bd     00005c8c     00005c68   dpl_cc13x2.aem4f : SwiP_tirtos.oem4f (.text:SwiP_destruct)
ti_sysbios_family_arm_m3_Hwi_disableFxn__E  $Tramp$TT$L$PI$$ti_sysbios_family_arm_m3_Hwi_disableFxn__E
   1002eb55     00005c94     00005c5c   dpl_cc13x2.aem4f : HwiP_tirtos.oem4f (.text:HwiP_disable)
ti_sysbios_family_arm_m3_Hwi_destruct  $Tramp$TT$L$PI$$ti_sysbios_family_arm_m3_Hwi_destruct
   1002e475     00005c9c     00005c58   dpl_cc13x2.aem4f : HwiP_tirtos.oem4f (.text:HwiP_destruct)
ti_sysbios_BIOS_getCpuFreq__E  $Tramp$TT$L$PI$$ti_sysbios_BIOS_getCpuFreq__E
   1002e9fd     00005ca4     00005c44   dpl_cc13x2.aem4f : ClockP_tirtos.oem4f (.text:ClockP_getCpuFreq)
ti_sysbios_knl_Clock_destruct  $Tramp$TT$L$PI$$ti_sysbios_knl_Clock_destruct
   1002e649     00005cac     00005c40   dpl_cc13x2.aem4f : ClockP_tirtos.oem4f (.text:ClockP_destruct)
ti_sysbios_knl_Task_self__E  $Tramp$TT$L$PI$$ti_sysbios_knl_Task_self__E
   1002eaf5     00005cb4     00005ba6   rom_sysbios.aem4f : rom_sysbios.obj (.text:pthread_self)
ti_sysbios_knl_Semaphore_delete  $Tramp$TT$L$PI$$ti_sysbios_knl_Semaphore_delete
   1002ecdb     00005cbc     00005b7a   dpl_cc13x2.aem4f : SemaphoreP_tirtos.oem4f (.text:SemaphoreP_delete)
ti_sysbios_knl_Clock_logTick__E  $Tramp$TT$L$PI$$ti_sysbios_knl_Clock_logTick__E
   1002dbd7     00005cc4     00005a0e   release_pem4f.oem4f (.text:ti_sysbios_knl_Clock_doTick__I)
ti_sysbios_knl_Event_Params__init__S  $Tramp$TT$L$PI$$ti_sysbios_knl_Event_Params__init__S
   1002ebb5     00005ccc     000059a0   pdmstream.obj (.text:ti_sysbios_knl_Event_Params_init)
ti_sysbios_knl_Swi_post__E  $Tramp$TT$L$PI$$ti_sysbios_knl_Swi_post__E
   1002d891     00005cd4     0000591c   rom_sysbios.aem4f : rom_sysbios.obj (.text:ti_sysbios_knl_Swi_or__E)
                             00005a16   release_pem4f.oem4f (.text:ti_sysbios_knl_Clock_doTick__I)
ti_sysbios_BIOS_RtsGateProxy_leave__E  $Tramp$TT$L$PI$$ti_sysbios_BIOS_RtsGateProxy_leave__E
   1002ec7b     00005cdc     000058fe   release_pem4f.oem4f (.text:ti_sysbios_BIOS_rtsUnlock__I)
ti_sysbios_knl_Swi_construct  $Tramp$TT$L$PI$$ti_sysbios_knl_Swi_construct
   1002d719     00005ce4     000057e2   rom_sysbios.aem4f : rom_sysbios.obj (.text:ti_sysbios_knl_Swi_construct2__E)
ti_sysbios_knl_Swi_restore__E  $Tramp$TT$L$PI$$ti_sysbios_knl_Swi_restore__E
   1002db61     00005cec     0000578e   dpl_cc13x2.aem4f : PowerCC26X2_tirtos.oem4f (.text:PowerCC26XX_schedulerRestore)
ti_sysbios_BIOS_RtsGateProxy_enter__E  $Tramp$TT$L$PI$$ti_sysbios_BIOS_RtsGateProxy_enter__E
   1002ec77     00005cf4     00005662   release_pem4f.oem4f (.text:ti_sysbios_BIOS_rtsLock__I)
ti_sysbios_knl_Clock_TimerProxy_getCurrentTick__E  $Tramp$TT$L$PI$$ti_sysbios_knl_Clock_TimerProxy_getCurrentTick__E
   1002eac5     00005cfc     00005346   rom_sysbios.aem4f : rom_sysbios.obj (.text:ti_sysbios_knl_Clock_getTicksUntilInterrupt__E)
ti_sysbios_knl_Task_delete  $Tramp$TT$L$PI$$ti_sysbios_knl_Task_delete
   1002ece7     00005d04     000052f0   rom_sysbios.aem4f : rom_sysbios.obj (.text:_pthread_delete$45)
ti_sysbios_knl_Semaphore_destruct  $Tramp$TT$L$PI$$ti_sysbios_knl_Semaphore_destruct
   1002e6fd     00005d0c     000052e4   rom_sysbios.aem4f : rom_sysbios.obj (.text:_pthread_delete$45)
                             00005c60   dpl_cc13x2.aem4f : SemaphoreP_tirtos.oem4f (.text:SemaphoreP_destruct)
ti_sysbios_knl_Semaphore_create  $Tramp$TT$L$PI$$ti_sysbios_knl_Semaphore_create
   1002dc49     00005d14     000052d0   dpl_cc13x2.aem4f : SemaphoreP_tirtos.oem4f (.text:SemaphoreP_createBinary)
ti_sysbios_knl_Task_startup__E  $Tramp$TT$L$PI$$ti_sysbios_knl_Task_startup__E
   1002eceb     00005d1c     00005164   release_pem4f.oem4f (.text:ti_sysbios_BIOS_startFunc__I)
ti_sysbios_knl_Swi_startup__E  $Tramp$TT$L$PI$$ti_sysbios_knl_Swi_startup__E
   1002ec6b     00005d24     00005160   release_pem4f.oem4f (.text:ti_sysbios_BIOS_startFunc__I)
ti_sysbios_hal_Hwi_startup__E  $Tramp$TT$L$PI$$ti_sysbios_hal_Hwi_startup__E
   1002ec31     00005d2c     0000515c   release_pem4f.oem4f (.text:ti_sysbios_BIOS_startFunc__I)
ti_sysbios_family_arm_cc26xx_Timer_startup__E  $Tramp$TT$L$PI$$ti_sysbios_family_arm_cc26xx_Timer_startup__E
   1002dcf1     00005d34     00005158   release_pem4f.oem4f (.text:ti_sysbios_BIOS_startFunc__I)
xdc_runtime_System_atexit__E  $Tramp$TT$L$PI$$xdc_runtime_System_atexit__E
   1002f559     00005d3c     00005150   release_pem4f.oem4f (.text:ti_sysbios_BIOS_startFunc__I)
ti_sysbios_BIOS_linkedWithIncorrectBootLibrary__E  $Tramp$TT$L$PI$$ti_sysbios_BIOS_linkedWithIncorrectBootLibrary__E
   1002d01b     00005d44     0000514a   release_pem4f.oem4f (.text:ti_sysbios_BIOS_startFunc__I)
xdc_runtime_Startup_rtsDone__E  $Tramp$TT$L$PI$$xdc_runtime_Startup_rtsDone__E
   1002f8e5     00005d4c     00005142   release_pem4f.oem4f (.text:ti_sysbios_BIOS_startFunc__I)
ti_sysbios_knl_Swi_disable__E  $Tramp$TT$L$PI$$ti_sysbios_knl_Swi_disable__E
   1002ea25     00005d54     00005112   release_pem4f.oem4f (.text:ti_sysbios_BIOS_atExitFunc__I)
                             00005776   dpl_cc13x2.aem4f : PowerCC26X2_tirtos.oem4f (.text:PowerCC26XX_schedulerDisable)
ti_sysbios_family_arm_m3_Hwi_construct  $Tramp$TT$L$PI$$ti_sysbios_family_arm_m3_Hwi_construct
   1002d421     00005d5c     00004d16   rom_sysbios.aem4f : rom_sysbios.obj (.text:ti_sysbios_family_arm_m3_Hwi_construct2__E)
ti_sysbios_knl_Swi_Params__init__S  $Tramp$TT$L$PI$$ti_sysbios_knl_Swi_Params__init__S
   1002ebf1     00005d64     00004cda   dpl_cc13x2.aem4f : SwiP_tirtos.oem4f (.text:SwiP_construct)
ti_sysbios_family_arm_m3_Hwi_Params__init__S  $Tramp$TT$L$PI$$ti_sysbios_family_arm_m3_Hwi_Params__init__S
   1002eb49     00005d6c     00004bac   dpl_cc13x2.aem4f : HwiP_tirtos.oem4f (.text:HwiP_construct)
ti_sysbios_knl_Clock_construct  $Tramp$TT$L$PI$$ti_sysbios_knl_Clock_construct
   1002dd8d     00005d74     00004a06   dpl_cc13x2.aem4f : ClockP_tirtos.oem4f (.text:ClockP_construct)
ti_sysbios_knl_Clock_Params__init__S  $Tramp$TT$L$PI$$ti_sysbios_knl_Clock_Params__init__S
   1002eb9d     00005d7c     000049ec   dpl_cc13x2.aem4f : ClockP_tirtos.oem4f (.text:ClockP_construct)
xdc_runtime_System_exit__E  $Tramp$TT$L$PI$$xdc_runtime_System_exit__E
   1002f7b1     00005d84     000041e4   boot.aem4f : boot.oem4f (.text)
                             0000598a   release_pem4f.oem4f (.text:ti_sysbios_BIOS_exitFunc__I)
ti_sysbios_heaps_HeapMem_restore__E  $Tramp$TT$L$PI$$ti_sysbios_heaps_HeapMem_restore__E
   1002eb13     00005d8c     00004080   rom_sysbios.aem4f : rom_sysbios.obj (.text:ti_sysbios_heaps_HeapMem_initPrimary__I)
ti_sysbios_heaps_HeapMem_Object__get__S  $Tramp$TT$L$PI$$ti_sysbios_heaps_HeapMem_Object__get__S
   1002e275     00005d94     00004050   rom_sysbios.aem4f : rom_sysbios.obj (.text:ti_sysbios_heaps_HeapMem_initPrimary__I)
ti_sysbios_BIOS_start__E  $Tramp$TT$L$PI$$ti_sysbios_BIOS_start__E
   1002eaa5     00005d9c     00003eb2   main_tirtos.obj (.text:main)
xdc_runtime_Error_raiseX__E  $Tramp$TT$L$PI$$xdc_runtime_Error_raiseX__E
   1002f739     00005da4     000038da   rom_sysbios.aem4f : rom_sysbios.obj (.text:ti_sysbios_family_arm_m3_Hwi_excHandlerMin__I)
ti_sysbios_BIOS_setThreadType__E  $Tramp$TT$L$PI$$ti_sysbios_BIOS_setThreadType__E
   1002ea11     00005dac     0000389a   rom_sysbios.aem4f : rom_sysbios.obj (.text:ti_sysbios_family_arm_m3_Hwi_excHandlerMin__I)
                             0000511c   release_pem4f.oem4f (.text:ti_sysbios_BIOS_atExitFunc__I)
                             00005984   release_pem4f.oem4f (.text:ti_sysbios_BIOS_exitFunc__I)
ti_sysbios_family_arm_m3_Hwi_excFillContext__I  $Tramp$TT$L$PI$$ti_sysbios_family_arm_m3_Hwi_excFillContext__I
   1002bda9     00005db4     00003894   rom_sysbios.aem4f : rom_sysbios.obj (.text:ti_sysbios_family_arm_m3_Hwi_excHandlerMin__I)
ti_sysbios_knl_Semaphore_post__E  $Tramp$TT$L$PI$$ti_sysbios_knl_Semaphore_post__E
   1002cd21     00005dbc     000034b2   rom_sysbios.aem4f : rom_sysbios.obj (.text:_pthread_removeThreadKeys)
                             0000422c                     : rom_sysbios.obj (.text:pthread_exit)
                             00005c64   dpl_cc13x2.aem4f : SemaphoreP_tirtos.oem4f (.text:SemaphoreP_post)
xdc_runtime_Memory_free__E  $Tramp$TT$L$PI$$xdc_runtime_Memory_free__E
   1002f81d     00005dc4     000034a8   rom_sysbios.aem4f : rom_sysbios.obj (.text:_pthread_removeThreadKeys)
                             000052fc                     : rom_sysbios.obj (.text:_pthread_delete$45)
ti_sysbios_knl_Queue_next__E  $Tramp$TT$L$PI$$ti_sysbios_knl_Queue_next__E
   1002ecd7     00005dcc     00003482   rom_sysbios.aem4f : rom_sysbios.obj (.text:_pthread_removeThreadKeys)
ti_sysbios_knl_Queue_head__E  $Tramp$TT$L$PI$$ti_sysbios_knl_Queue_head__E
   1002ecd3     00005dd4     0000346e   rom_sysbios.aem4f : rom_sysbios.obj (.text:_pthread_removeThreadKeys)
ti_sysbios_knl_Semaphore_pend__E  $Tramp$TT$L$PI$$ti_sysbios_knl_Semaphore_pend__E
   1002bfb1     00005ddc     00003468   rom_sysbios.aem4f : rom_sysbios.obj (.text:_pthread_removeThreadKeys)
                             00005a34   dpl_cc13x2.aem4f : SemaphoreP_tirtos.oem4f (.text:SemaphoreP_pend)
ti_sysbios_knl_Task_restore__E  $Tramp$TT$L$PI$$ti_sysbios_knl_Task_restore__E
   1002df45     00005de4     00002f7e   rom_sysbios.aem4f : rom_sysbios.obj (.text:ti_sysbios_knl_Task_setPri__E)
                             0000345c                     : rom_sysbios.obj (.text:_pthread_removeThreadKeys)
                             000034bc                     : rom_sysbios.obj (.text:_pthread_removeThreadKeys)
                             0000423e                     : rom_sysbios.obj (.text:pthread_exit)
                             000054d0                     : rom_sysbios.obj (.text:_pthread_cleanupFxn)
                             00005796   dpl_cc13x2.aem4f : PowerCC26X2_tirtos.oem4f (.text:PowerCC26XX_schedulerRestore)
ti_sysbios_knl_Queue_enqueue__E  $Tramp$TT$L$PI$$ti_sysbios_knl_Queue_enqueue__E
   1002ebd9     00005dec     00002f50   rom_sysbios.aem4f : rom_sysbios.obj (.text:ti_sysbios_knl_Task_setPri__E)
ti_sysbios_knl_Queue_empty__E  $Tramp$TT$L$PI$$ti_sysbios_knl_Queue_empty__E
   1002eb21     00005df4     00002f38   rom_sysbios.aem4f : rom_sysbios.obj (.text:ti_sysbios_knl_Task_setPri__E)
                             00003454                     : rom_sysbios.obj (.text:_pthread_removeThreadKeys)
ti_sysbios_knl_Queue_remove__E  $Tramp$TT$L$PI$$ti_sysbios_knl_Queue_remove__E
   1002eb2f     00005dfc     00002f32   rom_sysbios.aem4f : rom_sysbios.obj (.text:ti_sysbios_knl_Task_setPri__E)
                             0000348a                     : rom_sysbios.obj (.text:_pthread_removeThreadKeys)
                             00003490                     : rom_sysbios.obj (.text:_pthread_removeThreadKeys)
ti_sysbios_knl_Task_disable__E  $Tramp$TT$L$PI$$ti_sysbios_knl_Task_disable__E
   1002ea4d     00005e04     00002ef8   rom_sysbios.aem4f : rom_sysbios.obj (.text:ti_sysbios_knl_Task_setPri__E)
                             0000344a                     : rom_sysbios.obj (.text:_pthread_removeThreadKeys)
                             00004232                     : rom_sysbios.obj (.text:pthread_exit)
                             00005116   release_pem4f.oem4f (.text:ti_sysbios_BIOS_atExitFunc__I)
                             000054c2   rom_sysbios.aem4f : rom_sysbios.obj (.text:_pthread_cleanupFxn)
                             0000576e   dpl_cc13x2.aem4f : PowerCC26X2_tirtos.oem4f (.text:PowerCC26XX_schedulerDisable)
ti_sysbios_knl_Clock_stop__E  $Tramp$TT$L$PI$$ti_sysbios_knl_Clock_stop__E
   1002e2c5     00005e0c     00002bf2   dpl_cc13x2.aem4f : PowerCC26X2_tirtos.oem4f (.text:PowerCC26XX_standbyPolicy)
                             00005c50                    : ClockP_tirtos.oem4f (.text:ClockP_stop)
ti_sysbios_knl_Clock_start__E  $Tramp$TT$L$PI$$ti_sysbios_knl_Clock_start__E
   1002e9e7     00005e14     00002be6   dpl_cc13x2.aem4f : PowerCC26X2_tirtos.oem4f (.text:PowerCC26XX_standbyPolicy)
                             00005c4c                    : ClockP_tirtos.oem4f (.text:ClockP_start)
ti_sysbios_knl_Clock_setTimeout__E  $Tramp$TT$L$PI$$ti_sysbios_knl_Clock_setTimeout__E
   1002ecc3     00005e1c     00002be0   dpl_cc13x2.aem4f : PowerCC26X2_tirtos.oem4f (.text:PowerCC26XX_standbyPolicy)
                             00005c48                    : ClockP_tirtos.oem4f (.text:ClockP_setTimeout)
ti_sysbios_knl_Task_create  $Tramp$TT$L$PI$$ti_sysbios_knl_Task_create
   1002d529     00005e24     00002512   rom_sysbios.aem4f : rom_sysbios.obj (.text:pthread_create)
ti_sysbios_knl_Semaphore_construct  $Tramp$TT$L$PI$$ti_sysbios_knl_Semaphore_construct
   1002ddc1     00005e2c     00002508   rom_sysbios.aem4f : rom_sysbios.obj (.text:pthread_create)
                             000052a6   dpl_cc13x2.aem4f : SemaphoreP_tirtos.oem4f (.text:SemaphoreP_constructBinary)
ti_sysbios_knl_Semaphore_Params__init__S  $Tramp$TT$L$PI$$ti_sysbios_knl_Semaphore_Params__init__S
   1002ebe5     00005e34     000024f6   rom_sysbios.aem4f : rom_sysbios.obj (.text:pthread_create)
                             00005296   dpl_cc13x2.aem4f : SemaphoreP_tirtos.oem4f (.text:SemaphoreP_constructBinary)
                             000052c0                    : SemaphoreP_tirtos.oem4f (.text:SemaphoreP_createBinary)
ti_sysbios_knl_Queue_construct  $Tramp$TT$L$PI$$ti_sysbios_knl_Queue_construct
   1002dee5     00005e3c     000024ea   rom_sysbios.aem4f : rom_sysbios.obj (.text:pthread_create)
xdc_runtime_Memory_alloc__E  $Tramp$TT$L$PI$$xdc_runtime_Memory_alloc__E
   1002f289     00005e44     00002492   rom_sysbios.aem4f : rom_sysbios.obj (.text:pthread_create)
ti_sysbios_knl_Task_Params__init__S  $Tramp$TT$L$PI$$ti_sysbios_knl_Task_Params__init__S
   1002ec09     00005e4c     0000247e   rom_sysbios.aem4f : rom_sysbios.obj (.text:pthread_create)
ti_sysbios_family_arm_m3_Hwi_restoreFxn__E  $Tramp$TT$L$PI$$ti_sysbios_family_arm_m3_Hwi_restoreFxn__E
   1002ec47     00005e54     00001926   drivers_cc13x2.aem4f : UARTCC26XX.oem4f (.text:UARTCC26XX_open)
                             00001932                        : UARTCC26XX.oem4f (.text:UARTCC26XX_open)
                             000019bc                        : UARTCC26XX.oem4f (.text:UARTCC26XX_open)
                             00001c08                        : UARTCC26XX.oem4f (.text:UARTCC26XX_read)
                             00001c64                        : UARTCC26XX.oem4f (.text:UARTCC26XX_read)
                             00001c8c                        : UARTCC26XX.oem4f (.text:UARTCC26XX_read)
                             00001c9e                        : UARTCC26XX.oem4f (.text:UARTCC26XX_read)
                             00001ce8                        : UARTCC26XX.oem4f (.text:UARTCC26XX_read)
                             00001cf8                        : UARTCC26XX.oem4f (.text:UARTCC26XX_read)
                             000020d6                        : GPIOCC26XX.oem4f (.text:GPIO_setConfig)
                             00002106                        : GPIOCC26XX.oem4f (.text:GPIO_setConfig)
                             0000242a                        : PINCC26XX.oem4f (.text:PINCC26XX_setIoCfg)
                             00002654                        : UARTCC26XX.oem4f (.text:UARTCC26XX_write)
                             00002676                        : UARTCC26XX.oem4f (.text:UARTCC26XX_write)
                             000026cc                        : UARTCC26XX.oem4f (.text:UARTCC26XX_write)
                             000027fa                        : GPIOCC26XX.oem4f (.text:GPIO_init)
                             00002800                        : GPIOCC26XX.oem4f (.text:GPIO_init)
                             00002944                        : PowerCC26X2.oem4f (.text:Power_releaseDependency)
                             00002abe                        : PowerCC26X2.oem4f (.text:Power_setDependency)
                             00003024                        : I2SCC26XX.oem4f (.text:updatePointer)
                             00003178                        : UARTCC26XX.oem4f (.text:writeTxFifoFlush)
                             00003258   PDMCC26XX.obj (.text:PDM_getPCMData)
                             0000334c   drivers_cc13x2.aem4f : UARTCC26XX.oem4f (.text:UARTCC26XX_writeCancel)
                             00003362                        : UARTCC26XX.oem4f (.text:UARTCC26XX_writeCancel)
                             00003396                        : UARTCC26XX.oem4f (.text:UARTCC26XX_writeCancel)
                             00003e3e                        : UARTCC26XX.oem4f (.text:UARTCC26XX_control)
                             00003f76                        : GPIOCC26XX.oem4f (.text:GPIO_write)
                             00004172                        : PowerCC26X2_calibrateRCOSC.oem4f (.text:PowerCC26X2_initiateCalibration)
                             000043de                        : GPIOCC26XX.oem4f (.text:GPIO_enableInt)
                             00004502                        : UARTCC26XX.oem4f (.text:UARTCC26XX_readCancel)
                             00004516                        : UARTCC26XX.oem4f (.text:UARTCC26XX_readCancel)
                             00004594                        : PowerCC26X2.oem4f (.text:switchXOSCHF)
                             000045f2                        : PINCC26XX.oem4f (.text:PIN_setOutputEnable)
                             000046f4                        : RingBuf.oem4f (.text:RingBuf_put)
                             0000471e                        : RingBuf.oem4f (.text:RingBuf_put)
                             000048f6                        : UART.oem4f (.text:UART_init)
                             00004974   PDMCC26XX.obj (.text:PDM_setQueueHead)
                             00004a7e   drivers_cc13x2.aem4f : RingBuf.oem4f (.text:RingBuf_get)
                             00004a86                        : RingBuf.oem4f (.text:RingBuf_get)
                             00004eae                        : GPIOCC26XX.oem4f (.text:GPIO_toggle)
                             000050d4                        : PowerCC26X2.oem4f (.text:Power_releaseConstraint)
                             00005104                        : PowerCC26X2.oem4f (.text:Power_setConstraint)
                             00005470                        : List.oem4f (.text:List_put)
                             00005496                        : List.oem4f (.text:List_remove)
                             000055f0                        : PowerCC26X2.oem4f (.text:Power_unregisterNotify)
                             00005636                        : UARTCC26XX.oem4f (.text:threadSafeStdbyDisRelease)
                             00005656                        : UARTCC26XX.oem4f (.text:threadSafeStdbyDisSet)
xdc_runtime_System_doPrint__I  $Tramp$TT$L$PI$$xdc_runtime_System_doPrint__I
   1002ecf1     00005e5c     000017d2   release_pem4f.oem4f (.text:xdc_runtime_System_printfExtend__I)
ti_sysbios_knl_Event_post__E  $Tramp$TT$L$PI$$ti_sysbios_knl_Event_post__E
   1002cfb3     00005e64     0000094a   pdmstream.obj (.text:mainThread)
                             00004408   pdmstream.obj (.text:pdmCallbackFxn)
                             00004418   pdmstream.obj (.text:pdmCallbackFxn)
                             0000442e   pdmstream.obj (.text:pdmCallbackFxn)
                             000053ea   pdmstream.obj (.text:gpioButtonFxn0)
                             00005412   pdmstream.obj (.text:gpioButtonFxn1)
ti_sysbios_knl_Event_pend__E  $Tramp$TT$L$PI$$ti_sysbios_knl_Event_pend__E
   1002c0a5     00005e6c     000007e8   pdmstream.obj (.text:mainThread)
ti_sysbios_knl_Event_construct  $Tramp$TT$L$PI$$ti_sysbios_knl_Event_construct
   1002e0d9     00005e74     00000776   pdmstream.obj (.text:mainThread)

[62 trampolines]
[142 trampoline calls]


GLOBAL SYMBOLS: SORTED ALPHABETICALLY BY Name 

address   name                                                               
-------   ----                                                               
00006550  ADCBuf_count                                                       
00006551  ADC_count                                                          
00006559  AESCBC_count                                                       
00006557  AESCCM_count                                                       
0000655c  AESCTRDRBG_count                                                   
0000655a  AESCTR_count                                                       
0000655b  AESECB_count                                                       
00006558  AESGCM_count                                                       
00006552  AudioHAL_count                                                     
00006488  BoardGpioInitTable                                                 
00005be9  Board_init                                                         
00005bf1  Board_initHook                                                     
00005719  CC1352R1_LAUNCHXL_initGeneral                                      
00003771  CC1352R1_LAUNCHXL_sendExtFlashByte                                 
00004991  CC1352R1_LAUNCHXL_shutDownExtFlash                                 
00004445  CC1352R1_LAUNCHXL_wakeUpExtFlash                                   
00005bd5  ClockP_Params_init                                                 
000049d1  ClockP_construct                                                   
00005c41  ClockP_destruct                                                    
00005c45  ClockP_getCpuFreq                                                  
00005afd  ClockP_getSystemTickPeriod                                         
1002dc11  ClockP_getSystemTicks                                              
00005c49  ClockP_setTimeout                                                  
00005c4d  ClockP_start                                                       
00005c51  ClockP_stop                                                        
00003af5  Codec1_encodeBuff                                                  
00002c49  Codec1_encodeSingle                                                
0000655e  Display_count                                                      
00006553  ECDH_count                                                         
00006554  ECDSA_count                                                        
00006555  ECJPAKE_count                                                      
000065c4  GPIOCC26XX_config                                                  
000043a5  GPIO_enableInt                                                     
00004fc1  GPIO_hwiIntFxn                                                     
000027e1  GPIO_init                                                          
00004ff1  GPIO_setCallback                                                   
00002065  GPIO_setConfig                                                     
00004e89  GPIO_toggle                                                        
00003f25  GPIO_write                                                         
00010000  HEAPSIZE                                                           
00005a57  HwiP_Params_init                                                   
00005c55  HwiP_clearInterrupt                                                
00004b91  HwiP_construct                                                     
00005c59  HwiP_destruct                                                      
00005c5d  HwiP_disable                                                       
1002ec47  HwiP_restore                                                       
0000655f  I2C_count                                                          
00005831  I2S_Params_init                                                    
00003cc1  I2S_close                                                          
00006678  I2S_config                                                         
00006560  I2S_count                                                          
000064b4  I2S_defaultParams                                                  
00005021  I2S_init                                                           
000039fd  I2S_open                                                           
00005c19  I2S_setReadQueueHead                                               
00005361  I2S_startClocks                                                    
000047b5  I2S_startRead                                                      
00004bd1  I2S_stopClocks                                                     
000047f9  I2S_stopRead                                                       
00004c0d  I2S_stopWrite                                                      
00005451  List_put                                                           
00005477  List_remove                                                        
00004ebd  NOROM_AUXSYSIFOpModeChange                                         
00005b21  NOROM_CPUcpsid                                                     
00005b2d  NOROM_CPUcpsie                                                     
00005c1f  NOROM_CPUdelay                                                     
00005735  NOROM_ChipInfo_GetChipFamily                                       
00004255  NOROM_ChipInfo_GetChipType                                         
0000483d  NOROM_ChipInfo_GetHwRevision                                       
00005849  NOROM_ChipInfo_GetPackageType                                      
000033bd  NOROM_OSCHF_AttemptToSwitchToXosc                                  
00003d29  NOROM_OSCHF_SwitchToRcOscTurnOffXosc                               
0000549d  NOROM_OSCHF_TurnOnXosc                                             
00004a11  NOROM_OSC_HPOSCRelativeFrequencyOffsetGet                          
00005b39  NOROM_PRCMAudioClockExternalSource                                 
00005b45  NOROM_PRCMAudioClockInternalSource                                 
000042a9  NOROM_PRCMPowerDomainsAllOff                                       
00004491  NOROM_PRCMPowerDomainsAllOn                                        
000030cd  NOROM_SetupTrimDevice                                              
00004ef1  NOROM_SysCtrlIdle                                                  
000038fd  NOROM_SysCtrlSetRechargeBeforePowerDown                            
00002271  NOROM_SysCtrlStandby                                               
00005939  NOROM_ThisLibraryIsFor_CC13x2_CC26x2_HwRev20AndLater_HaltIfViolated
00006561  NVS_count                                                          
000056bd  PDMTiFilter_d64OneLine_get                                         
2000150c  PDMTiFilter_decimation64                                           
0000522d  PDMTiFilter_setPrefilterGain                                       
00005861  PDM_Params_init                                                    
000051d1  PDM_Transaction_init                                               
000062e8  PDM_aBqCoeffs                                                      
00005259  PDM_close                                                          
00006680  PDM_config                                                         
00006562  PDM_count                                                          
00006568  PDM_defaultParams                                                  
000031fd  PDM_getPCMData                                                     
000040f5  PDM_init                                                           
00000a3d  PDM_open                                                           
0000494d  PDM_setQueueHead                                                   
000059a7  PDM_startClock                                                     
00004f8d  PDM_startStream                                                    
000059bb  PDM_stopClock                                                      
00005389  PDM_stopStream                                                     
00005a69  PINCC26XX_getPinCount                                              
00006688  PINCC26XX_hwAttrs                                                  
00005051  PINCC26XX_setMux                                                   
00003be1  PIN_add                                                            
000056db  PIN_close                                                          
00000c05  PIN_init                                                           
00002cf9  PIN_open                                                           
00005b51  PIN_registerIntCb                                                  
00003f85  PIN_remove                                                         
00004d39  PIN_setConfig                                                      
00004c49  PIN_setInterrupt                                                   
000045c1  PIN_setOutputEnable                                                
00004c85  PIN_setOutputValue                                                 
00005081  PRCMAudioClockConfigOverride                                       
00006563  PWM_count                                                          
00004609  PowerCC26X2_RCOSC_clockFunc                                        
00003b6d  PowerCC26X2_auxISR                                                 
000059cf  PowerCC26X2_calibrate                                              
000065d8  PowerCC26X2_config                                                 
0000414d  PowerCC26X2_initiateCalibration                                    
20001038  PowerCC26X2_module                                                 
00005815  PowerCC26XX_calibrate                                              
0000576d  PowerCC26XX_schedulerDisable                                       
00005789  PowerCC26XX_schedulerRestore                                       
00002b95  PowerCC26XX_standbyPolicy                                          
20001024  PowerCC26XX_swiKey                                                 
20001028  PowerCC26XX_taskKey                                                
00005b5d  Power_getConstraintMask                                            
00005b69  Power_getDependencyCount                                           
000056f9  Power_getTransitionLatency                                         
00005879  Power_idleFunc                                                     
000012d9  Power_init                                                         
000053b1  Power_registerNotify                                               
000050b1  Power_releaseConstraint                                            
000028a5  Power_releaseDependency                                            
000050e1  Power_setConstraint                                                
00002a25  Power_setDependency                                                
00001141  Power_sleep                                                        
000055dd  Power_unregisterNotify                                             
00005e7c  ROM_constStruct                                                    
00006440  ROM_externFuncPtrs                                                 
2000116c  ROM_stateStruct                                                    
000041a5  ResetISR                                                           
00005a21  RingBuf_construct                                                  
00004a51  RingBuf_get                                                        
000046e1  RingBuf_put                                                        
00006564  SD_count                                                           
00006556  SHA2_count                                                         
UNDEFED   SHT$$INIT_ARRAY$$Base                                              
UNDEFED   SHT$$INIT_ARRAY$$Limit                                             
00006565  SPI_count                                                          
00005285  SemaphoreP_constructBinary                                         
000052b1  SemaphoreP_createBinary                                            
00005b75  SemaphoreP_delete                                                  
00005c61  SemaphoreP_destruct                                                
00005a33  SemaphoreP_pend                                                    
00005c65  SemaphoreP_post                                                    
00005a79  SwiP_Params_init                                                   
00004cc1  SwiP_construct                                                     
00005c69  SwiP_destruct                                                      
00005c6d  SwiP_getTrigger                                                    
00005c71  SwiP_or                                                            
1002db61  SwiP_restore                                                       
0000655d  TRNG_count                                                         
000037f5  UARTCC26XX_close                                                   
00003df9  UARTCC26XX_control                                                 
000064e0  UARTCC26XX_fxnTable                                                
00001a75  UARTCC26XX_hwiIntFxn                                               
00005bf9  UARTCC26XX_init                                                    
00001911  UARTCC26XX_open                                                    
00001bc9  UARTCC26XX_read                                                    
000044dd  UARTCC26XX_readCancel                                              
00005c25  UARTCC26XX_readPolling                                             
00003ec1  UARTCC26XX_swiIntFxn                                               
00002631  UARTCC26XX_write                                                   
00003329  UARTCC26XX_writeCancel                                             
00005c2b  UARTCC26XX_writePolling                                            
00005891  UART_Params_init                                                   
00006580  UART_config                                                        
00006566  UART_count                                                         
00006508  UART_defaultParams                                                 
000048c5  UART_init                                                          
00004a91  UART_open                                                          
00005bdf  UART_write                                                         
00006567  Watchdog_count                                                     
00000000  __ASM__                                                            
00000081  __ISA__                                                            
00000094  __PLAT__                                                           
20014000  __STACK_END                                                        
00000400  __STACK_SIZE                                                       
000000bb  __TARG__                                                           
00006948  __TI_CINIT_Base                                                    
000069c0  __TI_CINIT_Limit                                                   
000068c8  __TI_Handler_Table_Base                                            
000068d4  __TI_Handler_Table_Limit                                           
00002e51  __TI_auto_init                                                     
00003d91  __TI_decompress_lzss                                               
00005ad3  __TI_decompress_none                                               
ffffffff  __TI_pprof_out_hndl                                                
ffffffff  __TI_prof_data_size                                                
ffffffff  __TI_prof_data_start                                               
00000000  __TI_static_base__                                                 
00005b99  __TI_zero_init                                                     
000000e1  __TRDR__                                                           
00003665  __aeabi_cdcmpeq                                                    
00003665  __aeabi_cdcmple                                                    
000036eb  __aeabi_cdrcmple                                                   
00004651  __aeabi_d2iz                                                       
00004909  __aeabi_d2uiz                                                      
00000f93  __aeabi_dadd                                                       
00002175  __aeabi_dmul                                                       
00000f89  __aeabi_dsub                                                       
00004de1  __aeabi_f2d                                                        
000051ff  __aeabi_i2d                                                        
000027df  __aeabi_idiv0                                                      
000027df  __aeabi_ldiv0                                                      
000058c1  __aeabi_lmul                                                       
00003a79  __aeabi_memclr                                                     
00003a79  __aeabi_memclr4                                                    
00003a79  __aeabi_memclr8                                                    
00003031  __aeabi_memcpy                                                     
00003031  __aeabi_memcpy4                                                    
00003031  __aeabi_memcpy8                                                    
00003a7b  __aeabi_memset                                                     
00003a7b  __aeabi_memset4                                                    
00003a7b  __aeabi_memset8                                                    
00004b11  __aeabi_uidiv                                                      
00004b11  __aeabi_uidivmod                                                   
00003293  __aeabi_uldivmod                                                   
ffffffff  __binit__                                                          
ffffffff  __c_args__                                                         
00057fa8  __ccfg                                                             
20011b20  __primary_heap_end__                                               
20001b20  __primary_heap_start__                                             
20013c00  __stack                                                            
20000000  __start___llvm_prf_cnts                                            
20000000  __stop___llvm_prf_cnts                                             
000058a9  _args_main                                                         
000041a5  _c_int00                                                           
200014e8  _hposcCoeffs                                                       
200015dc  _lock                                                              
0000113f  _nop                                                               
000054c1  _pthread_cleanupFxn                                                
0000594f  _pthread_cleanup_pop                                               
00003445  _pthread_removeThreadKeys                                          
00005b81  _register_lock                                                     
00005b8d  _register_unlock                                                   
200015e0  _unlock                                                            
20000fd0  adpcmBuf                                                           
ffffffff  binit                                                              
00004529  copy_in                                                            
200013e8  decimationFilterState                                              
2000101a  driverlib_release_0_57398                                          
2000102c  gainCoefficient                                                    
000053d9  gpioButtonFxn0                                                     
00005401  gpioButtonFxn1                                                     
200015cc  gpioCallbackFunctions                                              
20001428  gpioPinConfigs                                                     
000066c0  i2sCC26XXHWAttrs                                                   
20000c48  i2sCC26XXObjects                                                   
00006644  inPinTypes                                                         
00003e5d  main                                                               
00000755  mainThread                                                         
20001668  main_func_sp                                                       
00003031  memcpy                                                             
00003a81  memset                                                             
20000ea0  myDecimationFilter                                                 
00006650  outPinStrengths                                                    
00006634  outPinTypes                                                        
20000d70  pcmBufL1                                                           
20001030  pcmBufferLength                                                    
00001d05  pdm2pcm16k                                                         
20000570  pdmBuf1                                                            
20000670  pdmBuf2                                                            
20000770  pdmBuf3                                                            
20000870  pdmBuf4                                                            
20000970  pdmBuf5                                                            
20000a70  pdmBuf6                                                            
20000df0  pdmCC26XXObjects                                                   
20001034  pdmEvents                                                          
2000100c  pdmList                                                            
20000fb8  pdmParams                                                          
20000ec0  pdmTransaction1                                                    
20000ee0  pdmTransaction2                                                    
20000f00  pdmTransaction3                                                    
20000f20  pdmTransaction4                                                    
20000f40  pdmTransaction5                                                    
20000f60  pdmTransaction6                                                    
20000cf4  pinHandleTable                                                     
200015e8  pinLowerBound                                                      
200015e4  pinUpperBound                                                      
0000552d  pthread_attr_init                                                  
00005ae1  pthread_attr_setdetachstate                                        
000059e3  pthread_attr_setschedparam                                         
00005c37  pthread_attr_setstacksize                                          
00002461  pthread_create                                                     
000041fd  pthread_exit                                                       
00005ba5  pthread_self                                                       
00005309  pthread_setcancelstate                                             
20001658  pv                                                                 
00006354  resourceDB                                                         
20000fe4  sPDMEvents                                                         
20001656  si                                                                 
1002fddb  strlen                                                             
200011ac  ti_sysbios_BIOS_Module__state__V                                   
1002e4e1  ti_sysbios_BIOS_RtsGateProxy_Handle__label__S                      
1002eb79  ti_sysbios_BIOS_RtsGateProxy_Params__init__S                       
1002ec77  ti_sysbios_BIOS_RtsGateProxy_enter__E                              
1002ec7b  ti_sysbios_BIOS_RtsGateProxy_leave__E                              
1002ec9b  ti_sysbios_BIOS_RtsGateProxy_query__E                              
1002ec9b  ti_sysbios_BIOS_RtsGateProxy_query__E                              
00005111  ti_sysbios_BIOS_atExitFunc__I                                      
0000597b  ti_sysbios_BIOS_exitFunc__I                                        
1002ea85  ti_sysbios_BIOS_exit__E                                            
1002e9fd  ti_sysbios_BIOS_getCpuFreq__E                                      
1002ea95  ti_sysbios_BIOS_getThreadType__E                                   
1002d01b  ti_sysbios_BIOS_linkedWithIncorrectBootLibrary__E                  
000033bb  ti_sysbios_BIOS_nullFunc__I                                        
00005551  ti_sysbios_BIOS_registerRTSLock__I                                 
00005575  ti_sysbios_BIOS_removeRTSLock__I                                   
0000565d  ti_sysbios_BIOS_rtsLock__I                                         
000058f1  ti_sysbios_BIOS_rtsUnlock__I                                       
1002ea11  ti_sysbios_BIOS_setThreadType__E                                   
00005141  ti_sysbios_BIOS_startFunc__I                                       
1002eaa5  ti_sysbios_BIOS_start__E                                           
000030cd  ti_sysbios_family_arm_cc26xx_Boot_trimDevice                       
00005f66  ti_sysbios_family_arm_cc26xx_Timer_Module__id__C                   
1002e15d  ti_sysbios_family_arm_cc26xx_Timer_Module__startupDone__S          
20001270  ti_sysbios_family_arm_cc26xx_Timer_Module__state__V                
1002dfa5  ti_sysbios_family_arm_cc26xx_Timer_Module_startup__E               
200013a0  ti_sysbios_family_arm_cc26xx_Timer_Object__table__V                
0000567d  ti_sysbios_family_arm_cc26xx_Timer_dynamicStub__E                  
00005f9c  ti_sysbios_family_arm_cc26xx_Timer_funcHookCH1__C                  
00005ffc  ti_sysbios_family_arm_cc26xx_Timer_funcHookCH2__C                  
000059f9  ti_sysbios_family_arm_cc26xx_Timer_getCount64__E                   
00005171  ti_sysbios_family_arm_cc26xx_Timer_getCurrentTick__E               
1002ec7f  ti_sysbios_family_arm_cc26xx_Timer_getExpiredTicks__E              
00005599  ti_sysbios_family_arm_cc26xx_Timer_getMaxTicks__E                  
1002ec83  ti_sysbios_family_arm_cc26xx_Timer_getPeriod__E                    
000051a1  ti_sysbios_family_arm_cc26xx_Timer_initDevice__I                   
1002c709  ti_sysbios_family_arm_cc26xx_Timer_periodicStub__E                 
1002dfd1  ti_sysbios_family_arm_cc26xx_Timer_postInit__I                     
00004e51  ti_sysbios_family_arm_cc26xx_Timer_setNextTick__E                  
1002ec87  ti_sysbios_family_arm_cc26xx_Timer_setPeriod__E                    
00004b51  ti_sysbios_family_arm_cc26xx_Timer_setThreshold__I                 
0000397d  ti_sysbios_family_arm_cc26xx_Timer_start__E                        
00005fd4  ti_sysbios_family_arm_cc26xx_Timer_startupNeeded__C                
1002dcf1  ti_sysbios_family_arm_cc26xx_Timer_startup__E                      
20001198  ti_sysbios_family_arm_cc26xx_TimestampProvider_Module__state__V    
1002e42d  ti_sysbios_family_arm_cc26xx_TimestampProvider_Module_startup__E   
00005aef  ti_sysbios_family_arm_cc26xx_TimestampProvider_get32__E            
1002dffd  ti_sysbios_family_arm_cc26xx_TimestampProvider_get64__E            
1002eb3d  ti_sysbios_family_arm_cc26xx_TimestampProvider_getFreq__E          
00006174  ti_sysbios_family_arm_cc26xx_TimestampProvider_useClockTimer__C    
00006000  ti_sysbios_family_arm_m3_Hwi_E_NMI__C                              
00006104  ti_sysbios_family_arm_m3_Hwi_E_alreadyDefined__C                   
00006064  ti_sysbios_family_arm_m3_Hwi_E_busFault__C                         
0000618c  ti_sysbios_family_arm_m3_Hwi_E_debugMon__C                         
000066c8  ti_sysbios_family_arm_m3_Hwi_E_exception__C                        
00006180  ti_sysbios_family_arm_m3_Hwi_E_hardFault__C                        
000061a8  ti_sysbios_family_arm_m3_Hwi_E_hwiLimitExceeded__C                 
000061fc  ti_sysbios_family_arm_m3_Hwi_E_memFault__C                         
00005fd8  ti_sysbios_family_arm_m3_Hwi_E_noIsr__C                            
00005fa4  ti_sysbios_family_arm_m3_Hwi_E_reserved__C                         
00006190  ti_sysbios_family_arm_m3_Hwi_E_svCall__C                           
000061ec  ti_sysbios_family_arm_m3_Hwi_E_usageFault__C                       
1002e451  ti_sysbios_family_arm_m3_Hwi_Handle__label__S                      
1002ce71  ti_sysbios_family_arm_m3_Hwi_Instance_finalize__E                  
1002c79d  ti_sysbios_family_arm_m3_Hwi_Instance_init__E                      
2000165a  ti_sysbios_family_arm_m3_Hwi_Module_State_0_excActive__A           
2000166c  ti_sysbios_family_arm_m3_Hwi_Module_State_0_excContext__A          
20001670  ti_sysbios_family_arm_m3_Hwi_Module_State_0_excStack__A            
00005f64  ti_sysbios_family_arm_m3_Hwi_Module__id__C                         
200015ec  ti_sysbios_family_arm_m3_Hwi_Module__root__V                       
1002e185  ti_sysbios_family_arm_m3_Hwi_Module__startupDone__S                
2000123c  ti_sysbios_family_arm_m3_Hwi_Module__state__V                      
1002d3c9  ti_sysbios_family_arm_m3_Hwi_Module_startup__E                     
00005fbc  ti_sysbios_family_arm_m3_Hwi_NUM_INTERRUPTS__C                     
000061b8  ti_sysbios_family_arm_m3_Hwi_Object__DESC__C                       
1002fc10  ti_sysbios_family_arm_m3_Hwi_Object__PARAMS__C                     
000061dc  ti_sysbios_family_arm_m3_Hwi_Object__count__C                      
1002e1ad  ti_sysbios_family_arm_m3_Hwi_Object__delete__S                     
1002e1d5  ti_sysbios_family_arm_m3_Hwi_Object__get__S                        
00005f6c  ti_sysbios_family_arm_m3_Hwi_Object__table__C                      
2000159c  ti_sysbios_family_arm_m3_Hwi_Object__table__V                      
1002eb49  ti_sysbios_family_arm_m3_Hwi_Params__init__S                       
000061f0  ti_sysbios_family_arm_m3_Hwi_ccr__C                                
000057c1  ti_sysbios_family_arm_m3_Hwi_clearInterrupt__E                     
1002d421  ti_sysbios_family_arm_m3_Hwi_construct                             
00004cfd  ti_sysbios_family_arm_m3_Hwi_construct2__E                         
1002d1a1  ti_sysbios_family_arm_m3_Hwi_create                                
1002ec8b  ti_sysbios_family_arm_m3_Hwi_delete                                
1002e475  ti_sysbios_family_arm_m3_Hwi_destruct                              
1002eb55  ti_sysbios_family_arm_m3_Hwi_disableFxn__E                         
1002d8d9  ti_sysbios_family_arm_m3_Hwi_disableInterrupt__E                   
1002cedd  ti_sysbios_family_arm_m3_Hwi_dispatchC__I                          
20000b70  ti_sysbios_family_arm_m3_Hwi_dispatchTable                         
1002f931  ti_sysbios_family_arm_m3_Hwi_dispatch__I                           
1002ec29  ti_sysbios_family_arm_m3_Hwi_doSwiRestore__I                       
1002ec41  ti_sysbios_family_arm_m3_Hwi_doTaskRestore__I                      
1002eb61  ti_sysbios_family_arm_m3_Hwi_enableFxn__E                          
1002d91d  ti_sysbios_family_arm_m3_Hwi_enableInterrupt__E                    
1002b82d  ti_sysbios_family_arm_m3_Hwi_excBusFault__I                        
1002c31d  ti_sysbios_family_arm_m3_Hwi_excDebugMon__I                        
1002b405  ti_sysbios_family_arm_m3_Hwi_excDumpRegs__I                        
1002bda9  ti_sysbios_family_arm_m3_Hwi_excFillContext__I                     
1002fb39  ti_sysbios_family_arm_m3_Hwi_excHandlerAsm__I                      
00006038  ti_sysbios_family_arm_m3_Hwi_excHandlerFunc__C                     
1002beb5  ti_sysbios_family_arm_m3_Hwi_excHandlerMax__I                      
00003879  ti_sysbios_family_arm_m3_Hwi_excHandlerMin__I                      
1002ddf5  ti_sysbios_family_arm_m3_Hwi_excHandler__I                         
1002c185  ti_sysbios_family_arm_m3_Hwi_excHardFault__I                       
00006698  ti_sysbios_family_arm_m3_Hwi_excHookFuncs__A                       
00005eac  ti_sysbios_family_arm_m3_Hwi_excHookFuncs__C                       
1002bc61  ti_sysbios_family_arm_m3_Hwi_excMemFault__I                        
1002da71  ti_sysbios_family_arm_m3_Hwi_excNmi__I                             
1002d961  ti_sysbios_family_arm_m3_Hwi_excNoIsr__I                           
1002d62d  ti_sysbios_family_arm_m3_Hwi_excReserved__I                        
1002d9a5  ti_sysbios_family_arm_m3_Hwi_excSvCall__I                          
1002b9a1  ti_sysbios_family_arm_m3_Hwi_excUsageFault__I                      
1002daad  ti_sysbios_family_arm_m3_Hwi_getHandle__E                          
1002d9e9  ti_sysbios_family_arm_m3_Hwi_getStackInfo__E                       
1002c831  ti_sysbios_family_arm_m3_Hwi_initNVIC__E                           
1002fab9  ti_sysbios_family_arm_m3_Hwi_initStacks__E                         
1002fa11  ti_sysbios_family_arm_m3_Hwi_interruptsAreDisabledButShouldNotBe   
00006098  ti_sysbios_family_arm_m3_Hwi_nullIsrFunc__C                        
0000616c  ti_sysbios_family_arm_m3_Hwi_numSparseInterrupts__C                
e000e000  ti_sysbios_family_arm_m3_Hwi_nvic                                  
1002fb11  ti_sysbios_family_arm_m3_Hwi_pendSV__I                             
1002e8fd  ti_sysbios_family_arm_m3_Hwi_plug__E                               
1002c3d9  ti_sysbios_family_arm_m3_Hwi_postInit__I                           
000060fc  ti_sysbios_family_arm_m3_Hwi_priGroup__C                           
20000000  ti_sysbios_family_arm_m3_Hwi_ramVectors                            
00000000  ti_sysbios_family_arm_m3_Hwi_resetVectors                          
1002ec47  ti_sysbios_family_arm_m3_Hwi_restoreFxn__E                         
1002fb35  ti_sysbios_family_arm_m3_Hwi_return                                
1002e919  ti_sysbios_family_arm_m3_Hwi_setPriority__E                        
1002ec31  ti_sysbios_family_arm_m3_Hwi_startup__E                            
1002e935  ti_sysbios_family_arm_m3_Hwi_switchFromBootStack__E                
1002ec8f  ti_sysbios_family_arm_m3_TaskSupport_Module__startupDone__S        
1002fa2d  ti_sysbios_family_arm_m3_TaskSupport_buildTaskStack                
1002eab5  ti_sysbios_family_arm_m3_TaskSupport_getStackAlignment__E          
1002fb8f  ti_sysbios_family_arm_m3_TaskSupport_glue                          
00005fb8  ti_sysbios_family_arm_m3_TaskSupport_stackAlignment__C             
1002dae9  ti_sysbios_family_arm_m3_TaskSupport_start__E                      
1002fb77  ti_sysbios_family_arm_m3_TaskSupport_swap__E                       
1002fb59  ti_sysbios_family_xxx_Hwi_switchAndRunFunc                         
1002e499  ti_sysbios_gates_GateHwi_Handle__label__S                          
1002d5d7  ti_sysbios_gates_GateHwi_Instance_init__E                          
000060b8  ti_sysbios_gates_GateHwi_Module__FXNS__C                           
00006028  ti_sysbios_gates_GateHwi_Module__id__C                             
200015f4  ti_sysbios_gates_GateHwi_Module__root__V                           
00006144  ti_sysbios_gates_GateHwi_Object__DESC__C                           
1002fd00  ti_sysbios_gates_GateHwi_Object__PARAMS__C                         
1002e029  ti_sysbios_gates_GateHwi_Object__create__S                         
1002e4bd  ti_sysbios_gates_GateHwi_Object__delete__S                         
1002eb6d  ti_sysbios_gates_GateHwi_enter__E                                  
1002ec4d  ti_sysbios_gates_GateHwi_leave__E                                  
1002ec93  ti_sysbios_gates_GateHwi_query__E                                  
1002e4e1  ti_sysbios_gates_GateMutex_Handle__label__S                        
00005ed4  ti_sysbios_gates_GateMutex_Instance_State_sem__O                   
1002ec53  ti_sysbios_gates_GateMutex_Instance_finalize__E                    
1002e9bb  ti_sysbios_gates_GateMutex_Instance_init__E                        
00005f3c  ti_sysbios_gates_GateMutex_Module__FXNS__C                         
0000609e  ti_sysbios_gates_GateMutex_Module__id__C                           
200015fc  ti_sysbios_gates_GateMutex_Module__root__V                         
00005eb0  ti_sysbios_gates_GateMutex_Object__DESC__C                         
1002fd18  ti_sysbios_gates_GateMutex_Object__PARAMS__C                       
1002de25  ti_sysbios_gates_GateMutex_Object__create__S                       
1002e1fd  ti_sysbios_gates_GateMutex_Object__delete__S                       
20001300  ti_sysbios_gates_GateMutex_Object__table__V                        
1002eb79  ti_sysbios_gates_GateMutex_Params__init__S                         
1002e055  ti_sysbios_gates_GateMutex_construct                               
1002de55  ti_sysbios_gates_GateMutex_create                                  
1002ec97  ti_sysbios_gates_GateMutex_delete                                  
1002e505  ti_sysbios_gates_GateMutex_destruct                                
1002e225  ti_sysbios_gates_GateMutex_enter__E                                
1002eb05  ti_sysbios_gates_GateMutex_leave__E                                
1002ec9b  ti_sysbios_gates_GateMutex_query__E                                
1002e451  ti_sysbios_hal_Hwi_HwiProxy_Handle__label__S                       
1002e185  ti_sysbios_hal_Hwi_HwiProxy_Module__startupDone__S                 
1002eb49  ti_sysbios_hal_Hwi_HwiProxy_Params__init__S                        
000057c1  ti_sysbios_hal_Hwi_HwiProxy_clearInterrupt__E                      
1002ec9f  ti_sysbios_hal_Hwi_HwiProxy_create                                 
1002eca3  ti_sysbios_hal_Hwi_HwiProxy_delete                                 
1002d8d9  ti_sysbios_hal_Hwi_HwiProxy_disableInterrupt__E                    
1002d8d9  ti_sysbios_hal_Hwi_HwiProxy_disableInterrupt__E                    
1002d91d  ti_sysbios_hal_Hwi_HwiProxy_enableInterrupt__E                     
1002d91d  ti_sysbios_hal_Hwi_HwiProxy_enableInterrupt__E                     
1002d9e9  ti_sysbios_hal_Hwi_HwiProxy_getStackInfo__E                        
1002d9e9  ti_sysbios_hal_Hwi_HwiProxy_getStackInfo__E                        
1002ec31  ti_sysbios_hal_Hwi_HwiProxy_startup__E                             
1002ec31  ti_sysbios_hal_Hwi_HwiProxy_startup__E                             
1002e935  ti_sysbios_hal_Hwi_HwiProxy_switchFromBootStack__E                 
1002e935  ti_sysbios_hal_Hwi_HwiProxy_switchFromBootStack__E                 
1002ec15  ti_sysbios_hal_Hwi_Instance_finalize__E                            
1002e8dd  ti_sysbios_hal_Hwi_Instance_init__E                                
20001604  ti_sysbios_hal_Hwi_Module__root__V                                 
1002ea61  ti_sysbios_hal_Hwi_Module_startup__E                               
000060dc  ti_sysbios_hal_Hwi_Object__DESC__C                                 
1002fc40  ti_sysbios_hal_Hwi_Object__PARAMS__C                               
1002e24d  ti_sysbios_hal_Hwi_Object__delete__S                               
000057c1  ti_sysbios_hal_Hwi_clearInterrupt__E                               
1002d1fd  ti_sysbios_hal_Hwi_create                                          
1002eca7  ti_sysbios_hal_Hwi_delete                                          
1002d8d9  ti_sysbios_hal_Hwi_disableInterrupt__E                             
1002d8d9  ti_sysbios_hal_Hwi_disableInterrupt__E                             
1002d91d  ti_sysbios_hal_Hwi_enableInterrupt__E                              
1002d91d  ti_sysbios_hal_Hwi_enableInterrupt__E                              
1002d9e9  ti_sysbios_hal_Hwi_getStackInfo__E                                 
1002d9e9  ti_sysbios_hal_Hwi_getStackInfo__E                                 
1002df75  ti_sysbios_hal_Hwi_initStack                                       
1002ec31  ti_sysbios_hal_Hwi_startup__E                                      
1002ec31  ti_sysbios_hal_Hwi_startup__E                                      
1002e935  ti_sysbios_hal_Hwi_switchFromBootStack__E                          
1002e935  ti_sysbios_hal_Hwi_switchFromBootStack__E                          
000061f8  ti_sysbios_heaps_HeapMem_E_memory__C                               
1002e529  ti_sysbios_heaps_HeapMem_Handle__label__S                          
1002d849  ti_sysbios_heaps_HeapMem_Instance_init__E                          
1002e4e1  ti_sysbios_heaps_HeapMem_Module_GateProxy_Handle__label__S         
1002eb79  ti_sysbios_heaps_HeapMem_Module_GateProxy_Params__init__S          
1002ecab  ti_sysbios_heaps_HeapMem_Module_GateProxy_enter__E                 
1002ecaf  ti_sysbios_heaps_HeapMem_Module_GateProxy_leave__E                 
1002ec9b  ti_sysbios_heaps_HeapMem_Module_GateProxy_query__E                 
1002ec9b  ti_sysbios_heaps_HeapMem_Module_GateProxy_query__E                 
0000603c  ti_sysbios_heaps_HeapMem_Module__FXNS__C                           
00005fd0  ti_sysbios_heaps_HeapMem_Module__gateObj__C                        
00006034  ti_sysbios_heaps_HeapMem_Module__id__C                             
2000160c  ti_sysbios_heaps_HeapMem_Module__root__V                           
00006204  ti_sysbios_heaps_HeapMem_Object__DESC__C                           
1002fc94  ti_sysbios_heaps_HeapMem_Object__PARAMS__C                         
00006168  ti_sysbios_heaps_HeapMem_Object__count__C                          
1002de85  ti_sysbios_heaps_HeapMem_Object__create__S                         
1002e54d  ti_sysbios_heaps_HeapMem_Object__delete__S                         
1002e275  ti_sysbios_heaps_HeapMem_Object__get__S                            
00005f98  ti_sysbios_heaps_HeapMem_Object__table__C                          
200015b4  ti_sysbios_heaps_HeapMem_Object__table__V                          
1002cb51  ti_sysbios_heaps_HeapMem_allocUnprotected__E                       
1002d259  ti_sysbios_heaps_HeapMem_alloc__E                                  
1002d479  ti_sysbios_heaps_HeapMem_freeUnprotected__E                        
1002dbd9  ti_sysbios_heaps_HeapMem_free__E                                   
1002d6cd  ti_sysbios_heaps_HeapMem_getStats__E                               
0000403d  ti_sysbios_heaps_HeapMem_initPrimary__I                            
1002dd25  ti_sysbios_heaps_HeapMem_init__I                                   
1002ec59  ti_sysbios_heaps_HeapMem_isBlocking__E                             
000066cc  ti_sysbios_heaps_HeapMem_primaryHeapBaseAddr__C                    
000066d0  ti_sysbios_heaps_HeapMem_primaryHeapEndAddr__C                     
0000611c  ti_sysbios_heaps_HeapMem_reqAlign__C                               
1002eb13  ti_sysbios_heaps_HeapMem_restore__E                                
00005f94  ti_sysbios_heaps_HeapTrack_A_bufOverflow__C                        
00006118  ti_sysbios_heaps_HeapTrack_A_doubleFree__C                         
00005fa8  ti_sysbios_heaps_HeapTrack_A_notEmpty__C                           
1002e571  ti_sysbios_heaps_HeapTrack_Handle__label__S                        
1002fd9c  ti_sysbios_heaps_HeapTrack_Instance_State_trackQueue__O            
1002c5d9  ti_sysbios_heaps_HeapTrack_Instance_finalize__E                    
1002e595  ti_sysbios_heaps_HeapTrack_Instance_init__E                        
00005ed8  ti_sysbios_heaps_HeapTrack_Module__FXNS__C                         
1002fda0  ti_sysbios_heaps_HeapTrack_Module__diagsEnabled__C                 
1002fda4  ti_sysbios_heaps_HeapTrack_Module__diagsIncluded__C                
1002fda8  ti_sysbios_heaps_HeapTrack_Module__diagsMask__C                    
000061f4  ti_sysbios_heaps_HeapTrack_Module__id__C                           
1002fd80  ti_sysbios_heaps_HeapTrack_Object__PARAMS__C                       
1002e081  ti_sysbios_heaps_HeapTrack_Object__create__S                       
1002e5b9  ti_sysbios_heaps_HeapTrack_Object__delete__S                       
1002eb85  ti_sysbios_heaps_HeapTrack_Params__init__S                         
1002c8c1  ti_sysbios_heaps_HeapTrack_alloc__E                                
1002e0ad  ti_sysbios_heaps_HeapTrack_create                                  
1002bb01  ti_sysbios_heaps_HeapTrack_free__E                                 
1002e5dd  ti_sysbios_heaps_HeapTrack_getStats__E                             
1002eb91  ti_sysbios_heaps_HeapTrack_isBlocking__E                           
1002e9d1  ti_sysbios_knl_Clock_Instance_finalize__E                          
1002dd59  ti_sysbios_knl_Clock_Instance_init__E                              
00006194  ti_sysbios_knl_Clock_Module_State_clockQ__O                        
20001614  ti_sysbios_knl_Clock_Module__root__V                               
2000116c  ti_sysbios_knl_Clock_Module__state__V                              
1002e601  ti_sysbios_knl_Clock_Module_startup__E                             
00005f10  ti_sysbios_knl_Clock_Object__DESC__C                               
1002fcb8  ti_sysbios_knl_Clock_Object__PARAMS__C                             
1002e29d  ti_sysbios_knl_Clock_Object__delete__S                             
2000152c  ti_sysbios_knl_Clock_Object__table__V                              
1002eb9d  ti_sysbios_knl_Clock_Params__init__S                               
1002e15d  ti_sysbios_knl_Clock_TimerProxy_Module__startupDone__S             
1002eac5  ti_sysbios_knl_Clock_TimerProxy_getCurrentTick__E                  
1002ecb3  ti_sysbios_knl_Clock_TimerProxy_getExpiredTicks__E                 
1002ead5  ti_sysbios_knl_Clock_TimerProxy_getMaxTicks__E                     
1002ecb7  ti_sysbios_knl_Clock_TimerProxy_getPeriod__E                       
1002eae5  ti_sysbios_knl_Clock_TimerProxy_setNextTick__E                     
1002dcf1  ti_sysbios_knl_Clock_TimerProxy_startup__E                         
1002dcf1  ti_sysbios_knl_Clock_TimerProxy_startup__E                         
1002e625  ti_sysbios_knl_Clock_addI__E                                       
1002dd8d  ti_sysbios_knl_Clock_construct                                     
1002db25  ti_sysbios_knl_Clock_create                                        
1002ecbb  ti_sysbios_knl_Clock_delete                                        
1002e649  ti_sysbios_knl_Clock_destruct                                      
00005a0d  ti_sysbios_knl_Clock_doTick__I                                     
00005335  ti_sysbios_knl_Clock_getTicksUntilInterrupt__E                     
1002dc11  ti_sysbios_knl_Clock_getTicks__E                                   
1002eba9  ti_sysbios_knl_Clock_getTimerHandle__E                             
1002dbd7  ti_sysbios_knl_Clock_logTick__E                                    
1002ecbf  ti_sysbios_knl_Clock_removeI__E                                    
1002e81d  ti_sysbios_knl_Clock_scheduleNextTick__E                           
1002ecc3  ti_sysbios_knl_Clock_setTimeout__E                                 
1002c94d  ti_sysbios_knl_Clock_startI__E                                     
1002e9e7  ti_sysbios_knl_Clock_start__E                                      
1002e2c5  ti_sysbios_knl_Clock_stop__E                                       
0000609c  ti_sysbios_knl_Clock_tickMode__C                                   
000066d4  ti_sysbios_knl_Clock_tickPeriod__C                                 
00005fc0  ti_sysbios_knl_Clock_triggerClock__C                               
1002dfa3  ti_sysbios_knl_Clock_triggerFunc__I                                
1002cbc5  ti_sysbios_knl_Clock_walkQueueDynamic__E                           
1002c53d  ti_sysbios_knl_Clock_workFuncDynamic__E                            
1002cad9  ti_sysbios_knl_Clock_workFunc__E                                   
00006178  ti_sysbios_knl_Event_Instance_State_pendQ__O                       
1002ec1f  ti_sysbios_knl_Event_Instance_init__E                              
2000161c  ti_sysbios_knl_Event_Module__root__V                               
00005e8c  ti_sysbios_knl_Event_Object__DESC__C                               
1002fd30  ti_sysbios_knl_Event_Object__PARAMS__C                             
1002e66d  ti_sysbios_knl_Event_Object__delete__S                             
1002ebb5  ti_sysbios_knl_Event_Params__init__S                               
1002e83d  ti_sysbios_knl_Event_checkEvents__I                                
1002e0d9  ti_sysbios_knl_Event_construct                                     
1002deb5  ti_sysbios_knl_Event_create                                        
1002ecc7  ti_sysbios_knl_Event_delete                                        
1002e85d  ti_sysbios_knl_Event_destruct                                      
1002e105  ti_sysbios_knl_Event_pendTimeout__I                                
1002c0a5  ti_sysbios_knl_Event_pend__E                                       
1002cfb3  ti_sysbios_knl_Event_post__E                                       
1002ea73  ti_sysbios_knl_Event_sync__E                                       
000066a0  ti_sysbios_knl_Idle_funcList__A                                    
00005f04  ti_sysbios_knl_Idle_funcList__C                                    
1002ec39  ti_sysbios_knl_Idle_loop__E                                        
1002e2ed  ti_sysbios_knl_Idle_run__E                                         
00005f34  ti_sysbios_knl_Mailbox_Instance_State_dataQue__O                   
000060b4  ti_sysbios_knl_Mailbox_Instance_State_dataSem__O                   
0000622c  ti_sysbios_knl_Mailbox_Instance_State_freeQue__O                   
00006108  ti_sysbios_knl_Mailbox_Instance_State_freeSem__O                   
1002d2b5  ti_sysbios_knl_Mailbox_Instance_finalize__E                        
1002c48d  ti_sysbios_knl_Mailbox_Instance_init__E                            
20001624  ti_sysbios_knl_Mailbox_Module__root__V                             
1002da2d  ti_sysbios_knl_Mailbox_Module_startup__E                           
00006078  ti_sysbios_knl_Mailbox_Object__DESC__C                             
1002fbdc  ti_sysbios_knl_Mailbox_Object__PARAMS__C                           
00006184  ti_sysbios_knl_Mailbox_Object__count__C                            
1002e315  ti_sysbios_knl_Mailbox_Object__delete__S                           
1002e33d  ti_sysbios_knl_Mailbox_Object__get__S                              
00005f68  ti_sysbios_knl_Mailbox_Object__table__C                            
1002ebc1  ti_sysbios_knl_Mailbox_Params__init__S                             
1002d4d1  ti_sysbios_knl_Mailbox_construct                                   
1002d311  ti_sysbios_knl_Mailbox_create                                      
1002eccb  ti_sysbios_knl_Mailbox_delete                                      
1002e691  ti_sysbios_knl_Mailbox_destruct                                    
00006170  ti_sysbios_knl_Mailbox_maxTypeAlign__C                             
1002d581  ti_sysbios_knl_Mailbox_pend__E                                     
1002e405  ti_sysbios_knl_Mailbox_postInit__I                                 
1002cf49  ti_sysbios_knl_Mailbox_post__E                                     
1002ec5f  ti_sysbios_knl_Queue_Instance_init__E                              
2000162c  ti_sysbios_knl_Queue_Module__root__V                               
00005fdc  ti_sysbios_knl_Queue_Object__DESC__C                               
1002fd48  ti_sysbios_knl_Queue_Object__PARAMS__C                             
0000606c  ti_sysbios_knl_Queue_Object__count__C                              
1002e6b5  ti_sysbios_knl_Queue_Object__delete__S                             
1002e87d  ti_sysbios_knl_Queue_Object__get__S                                
0000610c  ti_sysbios_knl_Queue_Object__table__C                              
1002dee5  ti_sysbios_knl_Queue_construct                                     
1002df15  ti_sysbios_knl_Queue_create                                        
1002eccf  ti_sysbios_knl_Queue_delete                                        
1002ebcd  ti_sysbios_knl_Queue_dequeue__E                                    
1002e89d  ti_sysbios_knl_Queue_destruct                                      
1002ec65  ti_sysbios_knl_Queue_elemClear__E                                  
1002eb21  ti_sysbios_knl_Queue_empty__E                                      
1002ebd9  ti_sysbios_knl_Queue_enqueue__E                                    
1002e951  ti_sysbios_knl_Queue_get__E                                        
1002ecd3  ti_sysbios_knl_Queue_head__E                                       
00005bbd  ti_sysbios_knl_Queue_insert__E                                     
1002ecd7  ti_sysbios_knl_Queue_next__E                                       
1002e96d  ti_sysbios_knl_Queue_put__E                                        
1002eb2f  ti_sysbios_knl_Queue_remove__E                                     
000061b0  ti_sysbios_knl_Semaphore_Instance_State_pendQ__O                   
1002e6d9  ti_sysbios_knl_Semaphore_Instance_finalize__E                      
1002d01d  ti_sysbios_knl_Semaphore_Instance_init__E                          
20001634  ti_sysbios_knl_Semaphore_Module__root__V                           
00006124  ti_sysbios_knl_Semaphore_Object__DESC__C                           
1002fcdc  ti_sysbios_knl_Semaphore_Object__PARAMS__C                         
1002e365  ti_sysbios_knl_Semaphore_Object__delete__S                         
1002ebe5  ti_sysbios_knl_Semaphore_Params__init__S                           
1002ddc1  ti_sysbios_knl_Semaphore_construct                                 
1002dc49  ti_sysbios_knl_Semaphore_create                                    
1002ecdb  ti_sysbios_knl_Semaphore_delete                                    
1002e6fd  ti_sysbios_knl_Semaphore_destruct                                  
00006110  ti_sysbios_knl_Semaphore_eventPost__C                              
00005f38  ti_sysbios_knl_Semaphore_eventSync__C                              
1002e131  ti_sysbios_knl_Semaphore_pendTimeout__I                            
1002bfb1  ti_sysbios_knl_Semaphore_pend__E                                   
1002cd21  ti_sysbios_knl_Semaphore_post__E                                   
1002e721  ti_sysbios_knl_Swi_Handle__label__S                                
1002e42b  ti_sysbios_knl_Swi_Instance_finalize__E                            
1002d36d  ti_sysbios_knl_Swi_Instance_init__E                                
20001458  ti_sysbios_knl_Swi_Module_State_0_readyQ__A                        
00005fca  ti_sysbios_knl_Swi_Module__id__C                                   
2000163c  ti_sysbios_knl_Swi_Module__root__V                                 
200011d0  ti_sysbios_knl_Swi_Module__state__V                                
1002e745  ti_sysbios_knl_Swi_Module_startup__E                               
00005f70  ti_sysbios_knl_Swi_Object__DESC__C                                 
1002fc6c  ti_sysbios_knl_Swi_Object__PARAMS__C                               
00005f00  ti_sysbios_knl_Swi_Object__count__C                                
1002e769  ti_sysbios_knl_Swi_Object__delete__S                               
1002e38d  ti_sysbios_knl_Swi_Object__get__S                                  
00005fc4  ti_sysbios_knl_Swi_Object__table__C                                
20001488  ti_sysbios_knl_Swi_Object__table__V                                
1002ebf1  ti_sysbios_knl_Swi_Params__init__S                                 
1002d719  ti_sysbios_knl_Swi_construct                                       
000057dd  ti_sysbios_knl_Swi_construct2__E                                   
1002d765  ti_sysbios_knl_Swi_create                                          
1002ecdf  ti_sysbios_knl_Swi_delete                                          
1002e8bd  ti_sysbios_knl_Swi_destruct                                        
1002ea25  ti_sysbios_knl_Swi_disable__E                                      
1002ea39  ti_sysbios_knl_Swi_enabled__E                                      
00005bc9  ti_sysbios_knl_Swi_getTrigger__E                                   
000060a0  ti_sysbios_knl_Swi_numPriorities__C                                
00005909  ti_sysbios_knl_Swi_or__E                                           
1002ece3  ti_sysbios_knl_Swi_postInit__I                                     
1002d891  ti_sysbios_knl_Swi_post__E                                         
1002c9d5  ti_sysbios_knl_Swi_restoreHwi__E                                   
1002db61  ti_sysbios_knl_Swi_restore__E                                      
1002d081  ti_sysbios_knl_Swi_runLoop__I                                      
1002cd91  ti_sysbios_knl_Swi_run__I                                          
1002d0e1  ti_sysbios_knl_Swi_schedule__I                                     
1002ebfd  ti_sysbios_knl_Swi_self__E                                         
1002ec6b  ti_sysbios_knl_Swi_startup__E                                      
1002e78d  ti_sysbios_knl_Task_Handle__label__S                               
20000370  ti_sysbios_knl_Task_Instance_State_0_stack__A                      
1002c671  ti_sysbios_knl_Task_Instance_finalize__E                           
1002c251  ti_sysbios_knl_Task_Instance_init__E                               
20001674  ti_sysbios_knl_Task_Module_State_0_idleTask__A                     
200014b8  ti_sysbios_knl_Task_Module_State_0_readyQ__A                       
00005f60  ti_sysbios_knl_Task_Module_State_inactiveQ__O                      
00005f30  ti_sysbios_knl_Task_Module__id__C                                  
20001644  ti_sysbios_knl_Task_Module__root__V                                
200011ec  ti_sysbios_knl_Task_Module__state__V                               
1002d141  ti_sysbios_knl_Task_Module_startup__E                              
00006004  ti_sysbios_knl_Task_Object__DESC__C                                
1002fba0  ti_sysbios_knl_Task_Object__PARAMS__C                              
00006200  ti_sysbios_knl_Task_Object__count__C                               
1002e3b5  ti_sysbios_knl_Task_Object__delete__S                              
1002e7b1  ti_sysbios_knl_Task_Object__get__S                                 
000066d8  ti_sysbios_knl_Task_Object__heap__C                                
00006074  ti_sysbios_knl_Task_Object__table__C                               
20001354  ti_sysbios_knl_Task_Object__table__V                               
1002ec09  ti_sysbios_knl_Task_Params__init__S                                
1002ec8f  ti_sysbios_knl_Task_SupportProxy_Module__startupDone__S            
1002eab5  ti_sysbios_knl_Task_SupportProxy_getStackAlignment__E              
1002eab5  ti_sysbios_knl_Task_SupportProxy_getStackAlignment__E              
1002dae9  ti_sysbios_knl_Task_SupportProxy_start__E                          
1002dae9  ti_sysbios_knl_Task_SupportProxy_start__E                          
1002fb77  ti_sysbios_knl_Task_SupportProxy_swap__E                           
1002fb77  ti_sysbios_knl_Task_SupportProxy_swap__E                           
0000617c  ti_sysbios_knl_Task_allBlockedFunc__C                              
1002d67d  ti_sysbios_knl_Task_allBlockedFunction__I                          
1002d7b1  ti_sysbios_knl_Task_blockI__E                                      
1002d5d9  ti_sysbios_knl_Task_construct                                      
1002d529  ti_sysbios_knl_Task_create                                         
000061e8  ti_sysbios_knl_Task_defaultStackHeap__C                            
000061a0  ti_sysbios_knl_Task_defaultStackSize__C                            
1002ece7  ti_sysbios_knl_Task_delete                                         
1002e7d5  ti_sysbios_knl_Task_destruct                                       
1002ea4d  ti_sysbios_knl_Task_disable__E                                     
1002ec71  ti_sysbios_knl_Task_enable__E                                      
1002e7f9  ti_sysbios_knl_Task_enter__I                                       
1002db9d  ti_sysbios_knl_Task_exit__E                                        
00005c7d  ti_sysbios_knl_Task_getArg1__E                                     
00005c81  ti_sysbios_knl_Task_getEnv__E                                      
000060ac  ti_sysbios_knl_Task_initStackFlag__C                               
000060a4  ti_sysbios_knl_Task_numConstructedTasks__C                         
1002ca59  ti_sysbios_knl_Task_postInit__I                                    
1002dc81  ti_sysbios_knl_Task_processVitalTaskFlag__I                        
1002e3dd  ti_sysbios_knl_Task_restoreHwi__E                                  
1002df45  ti_sysbios_knl_Task_restore__E                                     
1002cc39  ti_sysbios_knl_Task_schedule__I                                    
1002eaf5  ti_sysbios_knl_Task_self__E                                        
00002ef1  ti_sysbios_knl_Task_setPri__E                                      
1002e989  ti_sysbios_knl_Task_sleepTimeout__I                                
1002ce01  ti_sysbios_knl_Task_sleep__E                                       
1002ccad  ti_sysbios_knl_Task_startCore__E                                   
1002eceb  ti_sysbios_knl_Task_startup__E                                     
1002fb83  ti_sysbios_knl_Task_swapReturn                                     
1002dcb9  ti_sysbios_knl_Task_unblockI__E                                    
1002e9a3  ti_sysbios_knl_Task_unblock__E                                     
1002d7fd  ti_sysbios_knl_Task_yield__E                                       
1002b400  ti_sysbios_rom_cortexm_cc26xx_cc26x2v2_CC26xx_REVISION__C          
000063a8  uartCC26XXHWAttrs                                                  
20000110  uartCC26XXObjects                                                  
20000db0  uartCC26XXRingBuffer                                               
20000100  xdcRomConstPtr                                                     
20000104  xdcRomExternFuncPtr                                                
20000108  xdcRomStatePtr                                                     
00000001  xdc_rov_runtime_Mon__checksum                                      
00000001  xdc_rov_runtime_Mon__write                                         
00006024  xdc_runtime_Assert_E_assertFailed__C                               
1002f421  xdc_runtime_Assert_raise__I                                        
1002f659  xdc_runtime_Core_assignLabel__I                                    
1002f4c9  xdc_runtime_Core_assignParams__I                                   
1002f511  xdc_runtime_Core_constructObject__I                                
1002f2f9  xdc_runtime_Core_createObject__I                                   
1002f367  xdc_runtime_Core_deleteObject__I                                   
1002f803  xdc_runtime_Core_destructObject__I                                 
00006100  xdc_runtime_Error_E_memory__C                                      
2000154c  xdc_runtime_Error_IgnoreBlock                                      
1002f779  xdc_runtime_Error_check__E                                         
00005921  xdc_runtime_Error_init__E                                          
00005fa0  xdc_runtime_Error_policyFxn__C                                     
0000569d  xdc_runtime_Error_policyMin__E                                     
1002f1f7  xdc_runtime_Error_policySpin__E                                    
00005e7c  xdc_runtime_Error_policy__C                                        
1002f739  xdc_runtime_Error_raiseX__E                                        
1002f91b  xdc_runtime_Gate_enterSystem__E                                    
1002f90f  xdc_runtime_Gate_leaveSystem__E                                    
000061a4  xdc_runtime_IGateProvider_Interface__BASE__C                       
0000602c  xdc_runtime_IHeap_Interface__BASE__C                               
00005e80  xdc_runtime_IModule_Interface__BASE__C                             
1002e499  xdc_runtime_Main_Module_GateProxy_Handle__label__S                 
1002ec93  xdc_runtime_Main_Module_GateProxy_query__E                         
1002e529  xdc_runtime_Memory_HeapProxy_Handle__label__S                      
1002f8f1  xdc_runtime_Memory_HeapProxy_alloc__E                              
1002f8fb  xdc_runtime_Memory_HeapProxy_free__E                               
1002f905  xdc_runtime_Memory_HeapProxy_getStats__E                           
00005fc8  xdc_runtime_Memory_Module__id__C                                   
20001230  xdc_runtime_Memory_Module__state__V                                
1002f289  xdc_runtime_Memory_alloc__E                                        
1002f8d9  xdc_runtime_Memory_calloc__E                                       
00006228  xdc_runtime_Memory_defaultHeapInstance__C                          
1002f81d  xdc_runtime_Memory_free__E                                         
1002f8a9  xdc_runtime_Memory_getMaxDefaultTypeAlign__E                       
1002f831  xdc_runtime_Memory_getStats__E                                     
1002f795  xdc_runtime_Memory_valloc__E                                       
200011a4  xdc_runtime_Registry_Module__state__V                              
1002f759  xdc_runtime_Registry_findById__E                                   
2000119c  xdc_runtime_Startup_Module__state__V                               
00000001  xdc_runtime_Startup__EXECFXN__C                                    
00000001  xdc_runtime_Startup__RESETFXN__C                                   
00005ed0  xdc_runtime_Startup_execImpl__C                                    
1002f475  xdc_runtime_Startup_exec__E                                        
000057f9  xdc_runtime_Startup_exec__I                                        
0000665c  xdc_runtime_Startup_firstFxns__A                                   
00005fac  xdc_runtime_Startup_firstFxns__C                                   
00004099  xdc_runtime_Startup_getState__I                                    
00005e84  xdc_runtime_Startup_lastFxns__C                                    
000060a8  xdc_runtime_Startup_maxPasses__C                                   
00005c85  xdc_runtime_Startup_reset__I                                       
1002f8e5  xdc_runtime_Startup_rtsDone__E                                     
00006600  xdc_runtime_Startup_sfxnRts__A                                     
00006120  xdc_runtime_Startup_sfxnRts__C                                     
0000652c  xdc_runtime_Startup_sfxnTab__A                                     
00006230  xdc_runtime_Startup_sfxnTab__C                                     
000061ac  xdc_runtime_Startup_startModsFxn__C                                
1002f055  xdc_runtime_Startup_startMods__I                                   
1002f91f  xdc_runtime_SysCallback_Module__startupDone__S                     
000061e4  xdc_runtime_SysCallback_abortFxn__C                                
1002f845  xdc_runtime_SysCallback_abort__E                                   
00003af3  xdc_runtime_SysCallback_defaultAbort                               
00003cbf  xdc_runtime_SysCallback_defaultExit                                
00003f23  xdc_runtime_SysCallback_defaultFlush                               
000047b3  xdc_runtime_SysCallback_defaultPutch                               
00005c89  xdc_runtime_SysCallback_defaultReady                               
00006030  xdc_runtime_SysCallback_exitFxn__C                                 
1002f859  xdc_runtime_SysCallback_exit__E                                    
00005fcc  xdc_runtime_SysCallback_flushFxn__C                                
1002f86d  xdc_runtime_SysCallback_flush__E                                   
00006164  xdc_runtime_SysCallback_putchFxn__C                                
1002f881  xdc_runtime_SysCallback_putch__E                                   
00006198  xdc_runtime_SysCallback_readyFxn__C                                
1002f895  xdc_runtime_SysCallback_ready__E                                   
1002e499  xdc_runtime_System_Module_GateProxy_Handle__label__S               
1002f923  xdc_runtime_System_Module_GateProxy_enter__E                       
1002f927  xdc_runtime_System_Module_GateProxy_leave__E                       
1002ec93  xdc_runtime_System_Module_GateProxy_query__E                       
1002ec93  xdc_runtime_System_Module_GateProxy_query__E                       
2000164c  xdc_runtime_System_Module_State_0_atexitHandlers__A                
20001234  xdc_runtime_System_Module__state__V                                
1002f915  xdc_runtime_System_Module_startup__E                               
1002f91f  xdc_runtime_System_SupportProxy_Module__startupDone__S             
1002f845  xdc_runtime_System_SupportProxy_abort__E                           
1002f859  xdc_runtime_System_SupportProxy_exit__E                            
1002f86d  xdc_runtime_System_SupportProxy_flush__E                           
1002f881  xdc_runtime_System_SupportProxy_putch__E                           
1002f895  xdc_runtime_System_SupportProxy_ready__E                           
000060b0  xdc_runtime_System_abortFxn__C                                     
1002f81b  xdc_runtime_System_abortSpin__E                                    
1002f711  xdc_runtime_System_abort__E                                        
1002f559  xdc_runtime_System_atexit__E                                       
1002ecf1  xdc_runtime_System_doPrint__I                                      
00006114  xdc_runtime_System_exitFxn__C                                      
1002f92f  xdc_runtime_System_exitSpin__E                                     
1002f7b1  xdc_runtime_System_exit__E                                         
000061b4  xdc_runtime_System_extendFxn__C                                    
1002f86d  xdc_runtime_System_flush__E                                        
00003c51  xdc_runtime_System_formatNum__I                                    
00006068  xdc_runtime_System_maxAtexitHandlers__C                            
00001789  xdc_runtime_System_printfExtend__I                                 
1002f7e9  xdc_runtime_System_printf__E                                       
1002f92b  xdc_runtime_System_printf_va__F                                    
1002f5e5  xdc_runtime_System_processAtExit__E                                
1002f625  xdc_runtime_System_putchar__I                                      
1002f6b9  xdc_runtime_System_vprintf__E                                      
1002f8b9  xdc_runtime_System_vsnprintf__E                                    
00005f90  xdc_runtime_Text_charCnt__C                                        
000062e6  xdc_runtime_Text_charTab__A                                        
00005fb4  xdc_runtime_Text_charTab__C                                        
1002f6e5  xdc_runtime_Text_cordText__E                                       
00005f0c  xdc_runtime_Text_isLoaded__C                                       
000061d8  xdc_runtime_Text_nameEmpty__C                                      
00006188  xdc_runtime_Text_nameStatic__C                                     
00006224  xdc_runtime_Text_nameUnknown__C                                    
1002f689  xdc_runtime_Text_printVisFxn__I                                    
1002f3c5  xdc_runtime_Text_putLab__E                                         
1002f1f9  xdc_runtime_Text_putMod__E                                         
1002f15d  xdc_runtime_Text_putSite__E                                        
00006070  xdc_runtime_Text_registryModsLastId__C                             
1002f7cd  xdc_runtime_Text_ropeText__E                                       
0000619c  xdc_runtime_Text_unnamedModsLastId__C                              
000061e0  xdc_runtime_Text_visitRopeFxn__C                                   
00005c11  xdc_runtime_Text_visitRope__I                                      
1002f5a1  xdc_runtime_Text_xprintf__I                                        
1002f8c9  xdc_runtime_Timestamp_SupportProxy_get32__E                        
1002f8c9  xdc_runtime_Timestamp_SupportProxy_get32__E                        
1002dffd  xdc_runtime_Timestamp_SupportProxy_get64__E                        
1002dffd  xdc_runtime_Timestamp_SupportProxy_get64__E                        
1002eb3d  xdc_runtime_Timestamp_SupportProxy_getFreq__E                      
1002eb3d  xdc_runtime_Timestamp_SupportProxy_getFreq__E                      
1002f8c9  xdc_runtime_Timestamp_get32__E                                     
1002f8c9  xdc_runtime_Timestamp_get32__E                                     
1002dffd  xdc_runtime_Timestamp_get64__E                                     
1002dffd  xdc_runtime_Timestamp_get64__E                                     
1002eb3d  xdc_runtime_Timestamp_getFreq__E                                   
1002eb3d  xdc_runtime_Timestamp_getFreq__E                                   


GLOBAL SYMBOLS: SORTED BY Symbol Address 

address   name                                                               
-------   ----                                                               
00000000  __ASM__                                                            
00000000  __TI_static_base__                                                 
00000000  ti_sysbios_family_arm_m3_Hwi_resetVectors                          
00000001  xdc_rov_runtime_Mon__checksum                                      
00000001  xdc_rov_runtime_Mon__write                                         
00000001  xdc_runtime_Startup__EXECFXN__C                                    
00000001  xdc_runtime_Startup__RESETFXN__C                                   
00000081  __ISA__                                                            
00000094  __PLAT__                                                           
000000bb  __TARG__                                                           
000000e1  __TRDR__                                                           
00000400  __STACK_SIZE                                                       
00000755  mainThread                                                         
00000a3d  PDM_open                                                           
00000c05  PIN_init                                                           
00000f89  __aeabi_dsub                                                       
00000f93  __aeabi_dadd                                                       
0000113f  _nop                                                               
00001141  Power_sleep                                                        
000012d9  Power_init                                                         
00001789  xdc_runtime_System_printfExtend__I                                 
00001911  UARTCC26XX_open                                                    
00001a75  UARTCC26XX_hwiIntFxn                                               
00001bc9  UARTCC26XX_read                                                    
00001d05  pdm2pcm16k                                                         
00002065  GPIO_setConfig                                                     
00002175  __aeabi_dmul                                                       
00002271  NOROM_SysCtrlStandby                                               
00002461  pthread_create                                                     
00002631  UARTCC26XX_write                                                   
000027df  __aeabi_idiv0                                                      
000027df  __aeabi_ldiv0                                                      
000027e1  GPIO_init                                                          
000028a5  Power_releaseDependency                                            
00002a25  Power_setDependency                                                
00002b95  PowerCC26XX_standbyPolicy                                          
00002c49  Codec1_encodeSingle                                                
00002cf9  PIN_open                                                           
00002e51  __TI_auto_init                                                     
00002ef1  ti_sysbios_knl_Task_setPri__E                                      
00003031  __aeabi_memcpy                                                     
00003031  __aeabi_memcpy4                                                    
00003031  __aeabi_memcpy8                                                    
00003031  memcpy                                                             
000030cd  NOROM_SetupTrimDevice                                              
000030cd  ti_sysbios_family_arm_cc26xx_Boot_trimDevice                       
000031fd  PDM_getPCMData                                                     
00003293  __aeabi_uldivmod                                                   
00003329  UARTCC26XX_writeCancel                                             
000033bb  ti_sysbios_BIOS_nullFunc__I                                        
000033bd  NOROM_OSCHF_AttemptToSwitchToXosc                                  
00003445  _pthread_removeThreadKeys                                          
00003665  __aeabi_cdcmpeq                                                    
00003665  __aeabi_cdcmple                                                    
000036eb  __aeabi_cdrcmple                                                   
00003771  CC1352R1_LAUNCHXL_sendExtFlashByte                                 
000037f5  UARTCC26XX_close                                                   
00003879  ti_sysbios_family_arm_m3_Hwi_excHandlerMin__I                      
000038fd  NOROM_SysCtrlSetRechargeBeforePowerDown                            
0000397d  ti_sysbios_family_arm_cc26xx_Timer_start__E                        
000039fd  I2S_open                                                           
00003a79  __aeabi_memclr                                                     
00003a79  __aeabi_memclr4                                                    
00003a79  __aeabi_memclr8                                                    
00003a7b  __aeabi_memset                                                     
00003a7b  __aeabi_memset4                                                    
00003a7b  __aeabi_memset8                                                    
00003a81  memset                                                             
00003af3  xdc_runtime_SysCallback_defaultAbort                               
00003af5  Codec1_encodeBuff                                                  
00003b6d  PowerCC26X2_auxISR                                                 
00003be1  PIN_add                                                            
00003c51  xdc_runtime_System_formatNum__I                                    
00003cbf  xdc_runtime_SysCallback_defaultExit                                
00003cc1  I2S_close                                                          
00003d29  NOROM_OSCHF_SwitchToRcOscTurnOffXosc                               
00003d91  __TI_decompress_lzss                                               
00003df9  UARTCC26XX_control                                                 
00003e5d  main                                                               
00003ec1  UARTCC26XX_swiIntFxn                                               
00003f23  xdc_runtime_SysCallback_defaultFlush                               
00003f25  GPIO_write                                                         
00003f85  PIN_remove                                                         
0000403d  ti_sysbios_heaps_HeapMem_initPrimary__I                            
00004099  xdc_runtime_Startup_getState__I                                    
000040f5  PDM_init                                                           
0000414d  PowerCC26X2_initiateCalibration                                    
000041a5  ResetISR                                                           
000041a5  _c_int00                                                           
000041fd  pthread_exit                                                       
00004255  NOROM_ChipInfo_GetChipType                                         
000042a9  NOROM_PRCMPowerDomainsAllOff                                       
000043a5  GPIO_enableInt                                                     
00004445  CC1352R1_LAUNCHXL_wakeUpExtFlash                                   
00004491  NOROM_PRCMPowerDomainsAllOn                                        
000044dd  UARTCC26XX_readCancel                                              
00004529  copy_in                                                            
000045c1  PIN_setOutputEnable                                                
00004609  PowerCC26X2_RCOSC_clockFunc                                        
00004651  __aeabi_d2iz                                                       
000046e1  RingBuf_put                                                        
000047b3  xdc_runtime_SysCallback_defaultPutch                               
000047b5  I2S_startRead                                                      
000047f9  I2S_stopRead                                                       
0000483d  NOROM_ChipInfo_GetHwRevision                                       
000048c5  UART_init                                                          
00004909  __aeabi_d2uiz                                                      
0000494d  PDM_setQueueHead                                                   
00004991  CC1352R1_LAUNCHXL_shutDownExtFlash                                 
000049d1  ClockP_construct                                                   
00004a11  NOROM_OSC_HPOSCRelativeFrequencyOffsetGet                          
00004a51  RingBuf_get                                                        
00004a91  UART_open                                                          
00004b11  __aeabi_uidiv                                                      
00004b11  __aeabi_uidivmod                                                   
00004b51  ti_sysbios_family_arm_cc26xx_Timer_setThreshold__I                 
00004b91  HwiP_construct                                                     
00004bd1  I2S_stopClocks                                                     
00004c0d  I2S_stopWrite                                                      
00004c49  PIN_setInterrupt                                                   
00004c85  PIN_setOutputValue                                                 
00004cc1  SwiP_construct                                                     
00004cfd  ti_sysbios_family_arm_m3_Hwi_construct2__E                         
00004d39  PIN_setConfig                                                      
00004de1  __aeabi_f2d                                                        
00004e51  ti_sysbios_family_arm_cc26xx_Timer_setNextTick__E                  
00004e89  GPIO_toggle                                                        
00004ebd  NOROM_AUXSYSIFOpModeChange                                         
00004ef1  NOROM_SysCtrlIdle                                                  
00004f8d  PDM_startStream                                                    
00004fc1  GPIO_hwiIntFxn                                                     
00004ff1  GPIO_setCallback                                                   
00005021  I2S_init                                                           
00005051  PINCC26XX_setMux                                                   
00005081  PRCMAudioClockConfigOverride                                       
000050b1  Power_releaseConstraint                                            
000050e1  Power_setConstraint                                                
00005111  ti_sysbios_BIOS_atExitFunc__I                                      
00005141  ti_sysbios_BIOS_startFunc__I                                       
00005171  ti_sysbios_family_arm_cc26xx_Timer_getCurrentTick__E               
000051a1  ti_sysbios_family_arm_cc26xx_Timer_initDevice__I                   
000051d1  PDM_Transaction_init                                               
000051ff  __aeabi_i2d                                                        
0000522d  PDMTiFilter_setPrefilterGain                                       
00005259  PDM_close                                                          
00005285  SemaphoreP_constructBinary                                         
000052b1  SemaphoreP_createBinary                                            
00005309  pthread_setcancelstate                                             
00005335  ti_sysbios_knl_Clock_getTicksUntilInterrupt__E                     
00005361  I2S_startClocks                                                    
00005389  PDM_stopStream                                                     
000053b1  Power_registerNotify                                               
000053d9  gpioButtonFxn0                                                     
00005401  gpioButtonFxn1                                                     
00005451  List_put                                                           
00005477  List_remove                                                        
0000549d  NOROM_OSCHF_TurnOnXosc                                             
000054c1  _pthread_cleanupFxn                                                
0000552d  pthread_attr_init                                                  
00005551  ti_sysbios_BIOS_registerRTSLock__I                                 
00005575  ti_sysbios_BIOS_removeRTSLock__I                                   
00005599  ti_sysbios_family_arm_cc26xx_Timer_getMaxTicks__E                  
000055dd  Power_unregisterNotify                                             
0000565d  ti_sysbios_BIOS_rtsLock__I                                         
0000567d  ti_sysbios_family_arm_cc26xx_Timer_dynamicStub__E                  
0000569d  xdc_runtime_Error_policyMin__E                                     
000056bd  PDMTiFilter_d64OneLine_get                                         
000056db  PIN_close                                                          
000056f9  Power_getTransitionLatency                                         
00005719  CC1352R1_LAUNCHXL_initGeneral                                      
00005735  NOROM_ChipInfo_GetChipFamily                                       
0000576d  PowerCC26XX_schedulerDisable                                       
00005789  PowerCC26XX_schedulerRestore                                       
000057c1  ti_sysbios_family_arm_m3_Hwi_clearInterrupt__E                     
000057c1  ti_sysbios_hal_Hwi_HwiProxy_clearInterrupt__E                      
000057c1  ti_sysbios_hal_Hwi_clearInterrupt__E                               
000057dd  ti_sysbios_knl_Swi_construct2__E                                   
000057f9  xdc_runtime_Startup_exec__I                                        
00005815  PowerCC26XX_calibrate                                              
00005831  I2S_Params_init                                                    
00005849  NOROM_ChipInfo_GetPackageType                                      
00005861  PDM_Params_init                                                    
00005879  Power_idleFunc                                                     
00005891  UART_Params_init                                                   
000058a9  _args_main                                                         
000058c1  __aeabi_lmul                                                       
000058f1  ti_sysbios_BIOS_rtsUnlock__I                                       
00005909  ti_sysbios_knl_Swi_or__E                                           
00005921  xdc_runtime_Error_init__E                                          
00005939  NOROM_ThisLibraryIsFor_CC13x2_CC26x2_HwRev20AndLater_HaltIfViolated
0000594f  _pthread_cleanup_pop                                               
0000597b  ti_sysbios_BIOS_exitFunc__I                                        
000059a7  PDM_startClock                                                     
000059bb  PDM_stopClock                                                      
000059cf  PowerCC26X2_calibrate                                              
000059e3  pthread_attr_setschedparam                                         
000059f9  ti_sysbios_family_arm_cc26xx_Timer_getCount64__E                   
00005a0d  ti_sysbios_knl_Clock_doTick__I                                     
00005a21  RingBuf_construct                                                  
00005a33  SemaphoreP_pend                                                    
00005a57  HwiP_Params_init                                                   
00005a69  PINCC26XX_getPinCount                                              
00005a79  SwiP_Params_init                                                   
00005ad3  __TI_decompress_none                                               
00005ae1  pthread_attr_setdetachstate                                        
00005aef  ti_sysbios_family_arm_cc26xx_TimestampProvider_get32__E            
00005afd  ClockP_getSystemTickPeriod                                         
00005b21  NOROM_CPUcpsid                                                     
00005b2d  NOROM_CPUcpsie                                                     
00005b39  NOROM_PRCMAudioClockExternalSource                                 
00005b45  NOROM_PRCMAudioClockInternalSource                                 
00005b51  PIN_registerIntCb                                                  
00005b5d  Power_getConstraintMask                                            
00005b69  Power_getDependencyCount                                           
00005b75  SemaphoreP_delete                                                  
00005b81  _register_lock                                                     
00005b8d  _register_unlock                                                   
00005b99  __TI_zero_init                                                     
00005ba5  pthread_self                                                       
00005bbd  ti_sysbios_knl_Queue_insert__E                                     
00005bc9  ti_sysbios_knl_Swi_getTrigger__E                                   
00005bd5  ClockP_Params_init                                                 
00005bdf  UART_write                                                         
00005be9  Board_init                                                         
00005bf1  Board_initHook                                                     
00005bf9  UARTCC26XX_init                                                    
00005c11  xdc_runtime_Text_visitRope__I                                      
00005c19  I2S_setReadQueueHead                                               
00005c1f  NOROM_CPUdelay                                                     
00005c25  UARTCC26XX_readPolling                                             
00005c2b  UARTCC26XX_writePolling                                            
00005c37  pthread_attr_setstacksize                                          
00005c41  ClockP_destruct                                                    
00005c45  ClockP_getCpuFreq                                                  
00005c49  ClockP_setTimeout                                                  
00005c4d  ClockP_start                                                       
00005c51  ClockP_stop                                                        
00005c55  HwiP_clearInterrupt                                                
00005c59  HwiP_destruct                                                      
00005c5d  HwiP_disable                                                       
00005c61  SemaphoreP_destruct                                                
00005c65  SemaphoreP_post                                                    
00005c69  SwiP_destruct                                                      
00005c6d  SwiP_getTrigger                                                    
00005c71  SwiP_or                                                            
00005c7d  ti_sysbios_knl_Task_getArg1__E                                     
00005c81  ti_sysbios_knl_Task_getEnv__E                                      
00005c85  xdc_runtime_Startup_reset__I                                       
00005c89  xdc_runtime_SysCallback_defaultReady                               
00005e7c  ROM_constStruct                                                    
00005e7c  xdc_runtime_Error_policy__C                                        
00005e80  xdc_runtime_IModule_Interface__BASE__C                             
00005e84  xdc_runtime_Startup_lastFxns__C                                    
00005e8c  ti_sysbios_knl_Event_Object__DESC__C                               
00005eac  ti_sysbios_family_arm_m3_Hwi_excHookFuncs__C                       
00005eb0  ti_sysbios_gates_GateMutex_Object__DESC__C                         
00005ed0  xdc_runtime_Startup_execImpl__C                                    
00005ed4  ti_sysbios_gates_GateMutex_Instance_State_sem__O                   
00005ed8  ti_sysbios_heaps_HeapTrack_Module__FXNS__C                         
00005f00  ti_sysbios_knl_Swi_Object__count__C                                
00005f04  ti_sysbios_knl_Idle_funcList__C                                    
00005f0c  xdc_runtime_Text_isLoaded__C                                       
00005f10  ti_sysbios_knl_Clock_Object__DESC__C                               
00005f30  ti_sysbios_knl_Task_Module__id__C                                  
00005f34  ti_sysbios_knl_Mailbox_Instance_State_dataQue__O                   
00005f38  ti_sysbios_knl_Semaphore_eventSync__C                              
00005f3c  ti_sysbios_gates_GateMutex_Module__FXNS__C                         
00005f60  ti_sysbios_knl_Task_Module_State_inactiveQ__O                      
00005f64  ti_sysbios_family_arm_m3_Hwi_Module__id__C                         
00005f66  ti_sysbios_family_arm_cc26xx_Timer_Module__id__C                   
00005f68  ti_sysbios_knl_Mailbox_Object__table__C                            
00005f6c  ti_sysbios_family_arm_m3_Hwi_Object__table__C                      
00005f70  ti_sysbios_knl_Swi_Object__DESC__C                                 
00005f90  xdc_runtime_Text_charCnt__C                                        
00005f94  ti_sysbios_heaps_HeapTrack_A_bufOverflow__C                        
00005f98  ti_sysbios_heaps_HeapMem_Object__table__C                          
00005f9c  ti_sysbios_family_arm_cc26xx_Timer_funcHookCH1__C                  
00005fa0  xdc_runtime_Error_policyFxn__C                                     
00005fa4  ti_sysbios_family_arm_m3_Hwi_E_reserved__C                         
00005fa8  ti_sysbios_heaps_HeapTrack_A_notEmpty__C                           
00005fac  xdc_runtime_Startup_firstFxns__C                                   
00005fb4  xdc_runtime_Text_charTab__C                                        
00005fb8  ti_sysbios_family_arm_m3_TaskSupport_stackAlignment__C             
00005fbc  ti_sysbios_family_arm_m3_Hwi_NUM_INTERRUPTS__C                     
00005fc0  ti_sysbios_knl_Clock_triggerClock__C                               
00005fc4  ti_sysbios_knl_Swi_Object__table__C                                
00005fc8  xdc_runtime_Memory_Module__id__C                                   
00005fca  ti_sysbios_knl_Swi_Module__id__C                                   
00005fcc  xdc_runtime_SysCallback_flushFxn__C                                
00005fd0  ti_sysbios_heaps_HeapMem_Module__gateObj__C                        
00005fd4  ti_sysbios_family_arm_cc26xx_Timer_startupNeeded__C                
00005fd8  ti_sysbios_family_arm_m3_Hwi_E_noIsr__C                            
00005fdc  ti_sysbios_knl_Queue_Object__DESC__C                               
00005ffc  ti_sysbios_family_arm_cc26xx_Timer_funcHookCH2__C                  
00006000  ti_sysbios_family_arm_m3_Hwi_E_NMI__C                              
00006004  ti_sysbios_knl_Task_Object__DESC__C                                
00006024  xdc_runtime_Assert_E_assertFailed__C                               
00006028  ti_sysbios_gates_GateHwi_Module__id__C                             
0000602c  xdc_runtime_IHeap_Interface__BASE__C                               
00006030  xdc_runtime_SysCallback_exitFxn__C                                 
00006034  ti_sysbios_heaps_HeapMem_Module__id__C                             
00006038  ti_sysbios_family_arm_m3_Hwi_excHandlerFunc__C                     
0000603c  ti_sysbios_heaps_HeapMem_Module__FXNS__C                           
00006064  ti_sysbios_family_arm_m3_Hwi_E_busFault__C                         
00006068  xdc_runtime_System_maxAtexitHandlers__C                            
0000606c  ti_sysbios_knl_Queue_Object__count__C                              
00006070  xdc_runtime_Text_registryModsLastId__C                             
00006074  ti_sysbios_knl_Task_Object__table__C                               
00006078  ti_sysbios_knl_Mailbox_Object__DESC__C                             
00006098  ti_sysbios_family_arm_m3_Hwi_nullIsrFunc__C                        
0000609c  ti_sysbios_knl_Clock_tickMode__C                                   
0000609e  ti_sysbios_gates_GateMutex_Module__id__C                           
000060a0  ti_sysbios_knl_Swi_numPriorities__C                                
000060a4  ti_sysbios_knl_Task_numConstructedTasks__C                         
000060a8  xdc_runtime_Startup_maxPasses__C                                   
000060ac  ti_sysbios_knl_Task_initStackFlag__C                               
000060b0  xdc_runtime_System_abortFxn__C                                     
000060b4  ti_sysbios_knl_Mailbox_Instance_State_dataSem__O                   
000060b8  ti_sysbios_gates_GateHwi_Module__FXNS__C                           
000060dc  ti_sysbios_hal_Hwi_Object__DESC__C                                 
000060fc  ti_sysbios_family_arm_m3_Hwi_priGroup__C                           
00006100  xdc_runtime_Error_E_memory__C                                      
00006104  ti_sysbios_family_arm_m3_Hwi_E_alreadyDefined__C                   
00006108  ti_sysbios_knl_Mailbox_Instance_State_freeSem__O                   
0000610c  ti_sysbios_knl_Queue_Object__table__C                              
00006110  ti_sysbios_knl_Semaphore_eventPost__C                              
00006114  xdc_runtime_System_exitFxn__C                                      
00006118  ti_sysbios_heaps_HeapTrack_A_doubleFree__C                         
0000611c  ti_sysbios_heaps_HeapMem_reqAlign__C                               
00006120  xdc_runtime_Startup_sfxnRts__C                                     
00006124  ti_sysbios_knl_Semaphore_Object__DESC__C                           
00006144  ti_sysbios_gates_GateHwi_Object__DESC__C                           
00006164  xdc_runtime_SysCallback_putchFxn__C                                
00006168  ti_sysbios_heaps_HeapMem_Object__count__C                          
0000616c  ti_sysbios_family_arm_m3_Hwi_numSparseInterrupts__C                
00006170  ti_sysbios_knl_Mailbox_maxTypeAlign__C                             
00006174  ti_sysbios_family_arm_cc26xx_TimestampProvider_useClockTimer__C    
00006178  ti_sysbios_knl_Event_Instance_State_pendQ__O                       
0000617c  ti_sysbios_knl_Task_allBlockedFunc__C                              
00006180  ti_sysbios_family_arm_m3_Hwi_E_hardFault__C                        
00006184  ti_sysbios_knl_Mailbox_Object__count__C                            
00006188  xdc_runtime_Text_nameStatic__C                                     
0000618c  ti_sysbios_family_arm_m3_Hwi_E_debugMon__C                         
00006190  ti_sysbios_family_arm_m3_Hwi_E_svCall__C                           
00006194  ti_sysbios_knl_Clock_Module_State_clockQ__O                        
00006198  xdc_runtime_SysCallback_readyFxn__C                                
0000619c  xdc_runtime_Text_unnamedModsLastId__C                              
000061a0  ti_sysbios_knl_Task_defaultStackSize__C                            
000061a4  xdc_runtime_IGateProvider_Interface__BASE__C                       
000061a8  ti_sysbios_family_arm_m3_Hwi_E_hwiLimitExceeded__C                 
000061ac  xdc_runtime_Startup_startModsFxn__C                                
000061b0  ti_sysbios_knl_Semaphore_Instance_State_pendQ__O                   
000061b4  xdc_runtime_System_extendFxn__C                                    
000061b8  ti_sysbios_family_arm_m3_Hwi_Object__DESC__C                       
000061d8  xdc_runtime_Text_nameEmpty__C                                      
000061dc  ti_sysbios_family_arm_m3_Hwi_Object__count__C                      
000061e0  xdc_runtime_Text_visitRopeFxn__C                                   
000061e4  xdc_runtime_SysCallback_abortFxn__C                                
000061e8  ti_sysbios_knl_Task_defaultStackHeap__C                            
000061ec  ti_sysbios_family_arm_m3_Hwi_E_usageFault__C                       
000061f0  ti_sysbios_family_arm_m3_Hwi_ccr__C                                
000061f4  ti_sysbios_heaps_HeapTrack_Module__id__C                           
000061f8  ti_sysbios_heaps_HeapMem_E_memory__C                               
000061fc  ti_sysbios_family_arm_m3_Hwi_E_memFault__C                         
00006200  ti_sysbios_knl_Task_Object__count__C                               
00006204  ti_sysbios_heaps_HeapMem_Object__DESC__C                           
00006224  xdc_runtime_Text_nameUnknown__C                                    
00006228  xdc_runtime_Memory_defaultHeapInstance__C                          
0000622c  ti_sysbios_knl_Mailbox_Instance_State_freeQue__O                   
00006230  xdc_runtime_Startup_sfxnTab__C                                     
000062e6  xdc_runtime_Text_charTab__A                                        
000062e8  PDM_aBqCoeffs                                                      
00006354  resourceDB                                                         
000063a8  uartCC26XXHWAttrs                                                  
00006440  ROM_externFuncPtrs                                                 
00006488  BoardGpioInitTable                                                 
000064b4  I2S_defaultParams                                                  
000064e0  UARTCC26XX_fxnTable                                                
00006508  UART_defaultParams                                                 
0000652c  xdc_runtime_Startup_sfxnTab__A                                     
00006550  ADCBuf_count                                                       
00006551  ADC_count                                                          
00006552  AudioHAL_count                                                     
00006553  ECDH_count                                                         
00006554  ECDSA_count                                                        
00006555  ECJPAKE_count                                                      
00006556  SHA2_count                                                         
00006557  AESCCM_count                                                       
00006558  AESGCM_count                                                       
00006559  AESCBC_count                                                       
0000655a  AESCTR_count                                                       
0000655b  AESECB_count                                                       
0000655c  AESCTRDRBG_count                                                   
0000655d  TRNG_count                                                         
0000655e  Display_count                                                      
0000655f  I2C_count                                                          
00006560  I2S_count                                                          
00006561  NVS_count                                                          
00006562  PDM_count                                                          
00006563  PWM_count                                                          
00006564  SD_count                                                           
00006565  SPI_count                                                          
00006566  UART_count                                                         
00006567  Watchdog_count                                                     
00006568  PDM_defaultParams                                                  
00006580  UART_config                                                        
000065c4  GPIOCC26XX_config                                                  
000065d8  PowerCC26X2_config                                                 
00006600  xdc_runtime_Startup_sfxnRts__A                                     
00006634  outPinTypes                                                        
00006644  inPinTypes                                                         
00006650  outPinStrengths                                                    
0000665c  xdc_runtime_Startup_firstFxns__A                                   
00006678  I2S_config                                                         
00006680  PDM_config                                                         
00006688  PINCC26XX_hwAttrs                                                  
00006698  ti_sysbios_family_arm_m3_Hwi_excHookFuncs__A                       
000066a0  ti_sysbios_knl_Idle_funcList__A                                    
000066c0  i2sCC26XXHWAttrs                                                   
000066c8  ti_sysbios_family_arm_m3_Hwi_E_exception__C                        
000066cc  ti_sysbios_heaps_HeapMem_primaryHeapBaseAddr__C                    
000066d0  ti_sysbios_heaps_HeapMem_primaryHeapEndAddr__C                     
000066d4  ti_sysbios_knl_Clock_tickPeriod__C                                 
000066d8  ti_sysbios_knl_Task_Object__heap__C                                
000068c8  __TI_Handler_Table_Base                                            
000068d4  __TI_Handler_Table_Limit                                           
00006948  __TI_CINIT_Base                                                    
000069c0  __TI_CINIT_Limit                                                   
00010000  HEAPSIZE                                                           
00057fa8  __ccfg                                                             
1002b400  ti_sysbios_rom_cortexm_cc26xx_cc26x2v2_CC26xx_REVISION__C          
1002b405  ti_sysbios_family_arm_m3_Hwi_excDumpRegs__I                        
1002b82d  ti_sysbios_family_arm_m3_Hwi_excBusFault__I                        
1002b9a1  ti_sysbios_family_arm_m3_Hwi_excUsageFault__I                      
1002bb01  ti_sysbios_heaps_HeapTrack_free__E                                 
1002bc61  ti_sysbios_family_arm_m3_Hwi_excMemFault__I                        
1002bda9  ti_sysbios_family_arm_m3_Hwi_excFillContext__I                     
1002beb5  ti_sysbios_family_arm_m3_Hwi_excHandlerMax__I                      
1002bfb1  ti_sysbios_knl_Semaphore_pend__E                                   
1002c0a5  ti_sysbios_knl_Event_pend__E                                       
1002c185  ti_sysbios_family_arm_m3_Hwi_excHardFault__I                       
1002c251  ti_sysbios_knl_Task_Instance_init__E                               
1002c31d  ti_sysbios_family_arm_m3_Hwi_excDebugMon__I                        
1002c3d9  ti_sysbios_family_arm_m3_Hwi_postInit__I                           
1002c48d  ti_sysbios_knl_Mailbox_Instance_init__E                            
1002c53d  ti_sysbios_knl_Clock_workFuncDynamic__E                            
1002c5d9  ti_sysbios_heaps_HeapTrack_Instance_finalize__E                    
1002c671  ti_sysbios_knl_Task_Instance_finalize__E                           
1002c709  ti_sysbios_family_arm_cc26xx_Timer_periodicStub__E                 
1002c79d  ti_sysbios_family_arm_m3_Hwi_Instance_init__E                      
1002c831  ti_sysbios_family_arm_m3_Hwi_initNVIC__E                           
1002c8c1  ti_sysbios_heaps_HeapTrack_alloc__E                                
1002c94d  ti_sysbios_knl_Clock_startI__E                                     
1002c9d5  ti_sysbios_knl_Swi_restoreHwi__E                                   
1002ca59  ti_sysbios_knl_Task_postInit__I                                    
1002cad9  ti_sysbios_knl_Clock_workFunc__E                                   
1002cb51  ti_sysbios_heaps_HeapMem_allocUnprotected__E                       
1002cbc5  ti_sysbios_knl_Clock_walkQueueDynamic__E                           
1002cc39  ti_sysbios_knl_Task_schedule__I                                    
1002ccad  ti_sysbios_knl_Task_startCore__E                                   
1002cd21  ti_sysbios_knl_Semaphore_post__E                                   
1002cd91  ti_sysbios_knl_Swi_run__I                                          
1002ce01  ti_sysbios_knl_Task_sleep__E                                       
1002ce71  ti_sysbios_family_arm_m3_Hwi_Instance_finalize__E                  
1002cedd  ti_sysbios_family_arm_m3_Hwi_dispatchC__I                          
1002cf49  ti_sysbios_knl_Mailbox_post__E                                     
1002cfb3  ti_sysbios_knl_Event_post__E                                       
1002d01b  ti_sysbios_BIOS_linkedWithIncorrectBootLibrary__E                  
1002d01d  ti_sysbios_knl_Semaphore_Instance_init__E                          
1002d081  ti_sysbios_knl_Swi_runLoop__I                                      
1002d0e1  ti_sysbios_knl_Swi_schedule__I                                     
1002d141  ti_sysbios_knl_Task_Module_startup__E                              
1002d1a1  ti_sysbios_family_arm_m3_Hwi_create                                
1002d1fd  ti_sysbios_hal_Hwi_create                                          
1002d259  ti_sysbios_heaps_HeapMem_alloc__E                                  
1002d2b5  ti_sysbios_knl_Mailbox_Instance_finalize__E                        
1002d311  ti_sysbios_knl_Mailbox_create                                      
1002d36d  ti_sysbios_knl_Swi_Instance_init__E                                
1002d3c9  ti_sysbios_family_arm_m3_Hwi_Module_startup__E                     
1002d421  ti_sysbios_family_arm_m3_Hwi_construct                             
1002d479  ti_sysbios_heaps_HeapMem_freeUnprotected__E                        
1002d4d1  ti_sysbios_knl_Mailbox_construct                                   
1002d529  ti_sysbios_knl_Task_create                                         
1002d581  ti_sysbios_knl_Mailbox_pend__E                                     
